{
  "contractName": "Doctor",
  "abi": [
    {
      "constant": true,
      "inputs": [
        {
          "name": "",
          "type": "address"
        },
        {
          "name": "",
          "type": "uint256"
        }
      ],
      "name": "patientsList",
      "outputs": [
        {
          "name": "",
          "type": "address"
        }
      ],
      "payable": false,
      "stateMutability": "view",
      "type": "function"
    },
    {
      "constant": true,
      "inputs": [],
      "name": "doctorInfo",
      "outputs": [
        {
          "name": "_name",
          "type": "string"
        },
        {
          "name": "list",
          "type": "address[]"
        }
      ],
      "payable": false,
      "stateMutability": "view",
      "type": "function"
    },
    {
      "constant": false,
      "inputs": [
        {
          "name": "_name",
          "type": "string"
        }
      ],
      "name": "doctorSignUp",
      "outputs": [],
      "payable": false,
      "stateMutability": "nonpayable",
      "type": "function"
    }
  ],
  "bytecode": "0x608060405234801561001057600080fd5b50610979806100206000396000f3fe608060405260043610610057576000357c0100000000000000000000000000000000000000000000000000000000900463ffffffff16806351fd8dfd1461005c5780637e1616b414610134578063bdc46500146101cf575b600080fd5b34801561006857600080fd5b50610071610297565b604051808060200180602001838103835285818151815260200191508051906020019080838360005b838110156100b557808201518184015260208101905061009a565b50505050905090810190601f1680156100e25780820380516001836020036101000a031916815260200191505b50838103825284818151815260200191508051906020019060200280838360005b8381101561011e578082015181840152602081019050610103565b5050505090500194505050505060405180910390f35b34801561014057600080fd5b5061018d6004803603604081101561015757600080fd5b81019080803573ffffffffffffffffffffffffffffffffffffffff169060200190929190803590602001909291905050506104be565b604051808273ffffffffffffffffffffffffffffffffffffffff1673ffffffffffffffffffffffffffffffffffffffff16815260200191505060405180910390f35b3480156101db57600080fd5b50610295600480360360208110156101f257600080fd5b810190808035906020019064010000000081111561020f57600080fd5b82018360208201111561022157600080fd5b8035906020019184600183028401116401000000008311171561024357600080fd5b91908080601f016020809104026020016040519081016040528093929190818152602001838380828437600081840152601f19601f82011690508083019250505050505050919291929050505061050b565b005b6060806102a2610878565b600160003373ffffffffffffffffffffffffffffffffffffffff1673ffffffffffffffffffffffffffffffffffffffff168152602001908152602001600020604080519081016040529081600082018054600181600116156101000203166002900480601f0160208091040260200160405190810160405280929190818152602001828054600181600116156101000203166002900480156103855780601f1061035a57610100808354040283529160200191610385565b820191906000526020600020905b81548152906001019060200180831161036857829003601f168201915b505050505081526020016001820160009054906101000a900473ffffffffffffffffffffffffffffffffffffffff1673ffffffffffffffffffffffffffffffffffffffff1673ffffffffffffffffffffffffffffffffffffffff168152505090508060000151600260003373ffffffffffffffffffffffffffffffffffffffff1673ffffffffffffffffffffffffffffffffffffffff168152602001908152602001600020819150808054806020026020016040519081016040528092919081815260200182805480156104ae57602002820191906000526020600020905b8160009054906101000a900473ffffffffffffffffffffffffffffffffffffffff1673ffffffffffffffffffffffffffffffffffffffff1681526020019060010190808311610464575b5050505050905092509250509091565b6002602052816000526040600020818154811015156104d957fe5b906000526020600020016000915091509054906101000a900473ffffffffffffffffffffffffffffffffffffffff1681565b806040516020018082805190602001908083835b602083101515610544578051825260208201915060208101905060208303925061051f565b6001836020036101000a0380198251168184511680821785525050505050509050019150506040516020818303038152906040528051906020012060405160200180600001905060405160208183030381529060405280519060200120141515156105ae57600080fd5b6105b6610878565b600160003373ffffffffffffffffffffffffffffffffffffffff1673ffffffffffffffffffffffffffffffffffffffff168152602001908152602001600020604080519081016040529081600082018054600181600116156101000203166002900480601f0160208091040260200160405190810160405280929190818152602001828054600181600116156101000203166002900480156106995780601f1061066e57610100808354040283529160200191610699565b820191906000526020600020905b81548152906001019060200180831161067c57829003601f168201915b505050505081526020016001820160009054906101000a900473ffffffffffffffffffffffffffffffffffffffff1673ffffffffffffffffffffffffffffffffffffffff1673ffffffffffffffffffffffffffffffffffffffff16815250509050600073ffffffffffffffffffffffffffffffffffffffff16816020015173ffffffffffffffffffffffffffffffffffffffff16111515156107a3576040517f08c379a00000000000000000000000000000000000000000000000000000000081526004018080602001828103825260108152602001807f494420414c52454144592045584953540000000000000000000000000000000081525060200191505060405180910390fd5b60408051908101604052808381526020013373ffffffffffffffffffffffffffffffffffffffff16815250600160003373ffffffffffffffffffffffffffffffffffffffff1673ffffffffffffffffffffffffffffffffffffffff16815260200190815260200160002060008201518160000190805190602001906108299291906108a8565b5060208201518160010160006101000a81548173ffffffffffffffffffffffffffffffffffffffff021916908373ffffffffffffffffffffffffffffffffffffffff1602179055509050505050565b604080519081016040528060608152602001600073ffffffffffffffffffffffffffffffffffffffff1681525090565b828054600181600116156101000203166002900490600052602060002090601f016020900481019282601f106108e957805160ff1916838001178555610917565b82800160010185558215610917579182015b828111156109165782518255916020019190600101906108fb565b5b5090506109249190610928565b5090565b61094a91905b8082111561094657600081600090555060010161092e565b5090565b9056fea165627a7a72305820f9705489d43d540bd8b520ad8efba013623a9a8ae54994e09ee6b47a2c6c4c570029",
  "source": "pragma solidity >=0.4.21 <0.7.0;\n\ncontract Doctor{\n    mapping (address =>mapping(address=>uint)) internal doctorToPainent;\n    mapping (address=>doctor) internal doctors;\n    mapping(address=> address[]) public patientsList;\n\n    struct doctor{\n        string name;\n        address id;\n        // address[] patientsList;\n    }\n    modifier doctorExist(address _id){\n    doctor memory d= doctors[_id];\n    require(d.id > address(0),\"no id\");\n    _;\n\n    }\n    function doctorInfo() public view  returns(string memory _name,address[] memory list){\n        doctor memory d= doctors[msg.sender];\n     \n        return(d.name,patientsList[msg.sender]);\n    }\n\n    function doctorSignUp(string memory _name) public{\n        require(keccak256(abi.encodePacked(\"\"))!=keccak256(abi.encodePacked(_name)));\n        doctor memory d= doctors[msg.sender];\n            require(!(d.id > address(0)),\"ID ALREADY EXIST\");\n            doctors[msg.sender]=doctor({name:_name,id:msg.sender});\n\n    }\n}",
  "sourcePath": "/home/vishnuskrishnan/hacktonMedica/src/contracts/doctor.sol",
  "compiler": {
    "name": "solc",
    "version": "0.5.0+commit.1d4f565a.Emscripten.clang"
  },
  "schemaVersion": "3.0.2",
  "updatedAt": "2020-06-16T14:13:23.011Z",
  "devdoc": {
    "methods": {}
  },
  "userdoc": {
    "methods": {}
  }
}