{
  "contractName": "Doctor",
  "abi": [
    {
      "constant": true,
      "inputs": [],
      "name": "doctorInfo",
      "outputs": [
        {
          "name": "_name",
          "type": "string"
        },
        {
          "name": "list",
          "type": "address[]"
        }
      ],
      "payable": false,
      "stateMutability": "view",
      "type": "function"
    },
    {
      "constant": false,
      "inputs": [
        {
          "name": "_name",
          "type": "string"
        }
      ],
      "name": "doctorSignUp",
      "outputs": [],
      "payable": false,
      "stateMutability": "nonpayable",
      "type": "function"
    }
  ],
  "bytecode": "0x608060405234801561001057600080fd5b50610a0e806100206000396000f3fe60806040526004361061004c576000357c0100000000000000000000000000000000000000000000000000000000900463ffffffff16806351fd8dfd14610051578063bdc4650014610129575b600080fd5b34801561005d57600080fd5b506100666101f1565b604051808060200180602001838103835285818151815260200191508051906020019080838360005b838110156100aa57808201518184015260208101905061008f565b50505050905090810190601f1680156100d75780820380516001836020036101000a031916815260200191505b50838103825284818151815260200191508051906020019060200280838360005b838110156101135780820151818401526020810190506100f8565b5050505090500194505050505060405180910390f35b34801561013557600080fd5b506101ef6004803603602081101561014c57600080fd5b810190808035906020019064010000000081111561016957600080fd5b82018360208201111561017b57600080fd5b8035906020019184600183028401116401000000008311171561019d57600080fd5b91908080601f016020809104026020016040519081016040528093929190818152602001838380828437600081840152601f19601f8201169050808301925050505050505091929192905050506103e8565b005b6060806101fc610838565b600160003373ffffffffffffffffffffffffffffffffffffffff1673ffffffffffffffffffffffffffffffffffffffff16815260200190815260200160002060606040519081016040529081600082018054600181600116156101000203166002900480601f0160208091040260200160405190810160405280929190818152602001828054600181600116156101000203166002900480156102e05780601f106102b5576101008083540402835291602001916102e0565b820191906000526020600020905b8154815290600101906020018083116102c357829003601f168201915b505050505081526020016001820160009054906101000a900473ffffffffffffffffffffffffffffffffffffffff1673ffffffffffffffffffffffffffffffffffffffff1673ffffffffffffffffffffffffffffffffffffffff168152602001600282018054806020026020016040519081016040528092919081815260200182805480156103c457602002820191906000526020600020905b8160009054906101000a900473ffffffffffffffffffffffffffffffffffffffff1673ffffffffffffffffffffffffffffffffffffffff168152602001906001019080831161037a575b50505050508152505090508060000151816040015181915080905092509250509091565b806040516020018082805190602001908083835b60208310151561042157805182526020820191506020810190506020830392506103fc565b6001836020036101000a03801982511681845116808217855250505050505090500191505060405160208183030381529060405280519060200120604051602001806000019050604051602081830303815290604052805190602001201415151561048b57600080fd5b610493610838565b600160003373ffffffffffffffffffffffffffffffffffffffff1673ffffffffffffffffffffffffffffffffffffffff16815260200190815260200160002060606040519081016040529081600082018054600181600116156101000203166002900480601f0160208091040260200160405190810160405280929190818152602001828054600181600116156101000203166002900480156105775780601f1061054c57610100808354040283529160200191610577565b820191906000526020600020905b81548152906001019060200180831161055a57829003601f168201915b505050505081526020016001820160009054906101000a900473ffffffffffffffffffffffffffffffffffffffff1673ffffffffffffffffffffffffffffffffffffffff1673ffffffffffffffffffffffffffffffffffffffff1681526020016002820180548060200260200160405190810160405280929190818152602001828054801561065b57602002820191906000526020600020905b8160009054906101000a900473ffffffffffffffffffffffffffffffffffffffff1673ffffffffffffffffffffffffffffffffffffffff1681526020019060010190808311610611575b5050505050815250509050600073ffffffffffffffffffffffffffffffffffffffff16816020015173ffffffffffffffffffffffffffffffffffffffff161115151561070f576040517f08c379a00000000000000000000000000000000000000000000000000000000081526004018080602001828103825260108152602001807f494420414c52454144592045584953540000000000000000000000000000000081525060200191505060405180910390fd5b6060604051908101604052808381526020013373ffffffffffffffffffffffffffffffffffffffff168152602001600060405190808252806020026020018201604052801561076d5781602001602082028038833980820191505090505b50815250600160003373ffffffffffffffffffffffffffffffffffffffff1673ffffffffffffffffffffffffffffffffffffffff16815260200190815260200160002060008201518160000190805190602001906107cc929190610870565b5060208201518160010160006101000a81548173ffffffffffffffffffffffffffffffffffffffff021916908373ffffffffffffffffffffffffffffffffffffffff16021790555060408201518160020190805190602001906108309291906108f0565b509050505050565b60606040519081016040528060608152602001600073ffffffffffffffffffffffffffffffffffffffff168152602001606081525090565b828054600181600116156101000203166002900490600052602060002090601f016020900481019282601f106108b157805160ff19168380011785556108df565b828001600101855582156108df579182015b828111156108de5782518255916020019190600101906108c3565b5b5090506108ec919061097a565b5090565b828054828255906000526020600020908101928215610969579160200282015b828111156109685782518260006101000a81548173ffffffffffffffffffffffffffffffffffffffff021916908373ffffffffffffffffffffffffffffffffffffffff16021790555091602001919060010190610910565b5b509050610976919061099f565b5090565b61099c91905b80821115610998576000816000905550600101610980565b5090565b90565b6109df91905b808211156109db57600081816101000a81549073ffffffffffffffffffffffffffffffffffffffff0219169055506001016109a5565b5090565b9056fea165627a7a7230582091db506e05ee3081042827b8f5c26ae2ecb421bd3bb97d14da59996c491facb10029",
  "source": "pragma solidity >=0.4.21 <0.7.0;\n\ncontract Doctor{\n    mapping (address =>mapping(address=>uint)) internal doctorToPainent;\n    mapping (address=>doctor) internal doctors;\n\n    struct doctor{\n        string name;\n        address id;\n        address[] patientsList;\n    }\n    modifier doctorExist(address _id){\n    doctor memory d= doctors[_id];\n    require(d.id > address(0),\"no id\");\n    _;\n\n    }\n    function doctorInfo() public view  returns(string memory _name,address[] memory list){\n        doctor memory d= doctors[msg.sender];\n        return(d.name,d.patientsList);\n    }\n\n    function doctorSignUp(string memory _name) public{\n        require(keccak256(abi.encodePacked(\"\"))!=keccak256(abi.encodePacked(_name)));\n        doctor memory d= doctors[msg.sender];\n            require(!(d.id > address(0)),\"ID ALREADY EXIST\");\n            doctors[msg.sender]=doctor({name:_name,id:msg.sender,patientsList:new address[](0)});\n\n    }\n}",
  "sourcePath": "/home/vishnuskrishnan/hacktonMedica/src/contracts/doctor.sol",
  "compiler": {
    "name": "solc",
    "version": "0.5.0+commit.1d4f565a.Emscripten.clang"
  },
  "schemaVersion": "3.0.2",
  "updatedAt": "2020-06-15T17:01:45.034Z",
  "devdoc": {
    "methods": {}
  },
  "userdoc": {
    "methods": {}
  }
}