{
  "contractName": "HealthCare",
  "abi": [
    {
      "constant": true,
      "inputs": [],
      "name": "patientInfo",
      "outputs": [
        {
          "name": "_name",
          "type": "string"
        },
        {
          "name": "_age",
          "type": "uint256"
        },
        {
          "name": "_files",
          "type": "bytes32"
        },
        {
          "name": "_list",
          "type": "address[]"
        }
      ],
      "payable": false,
      "stateMutability": "view",
      "type": "function",
      "signature": "0x01fb529e"
    },
    {
      "constant": true,
      "inputs": [
        {
          "name": "",
          "type": "address"
        }
      ],
      "name": "patients",
      "outputs": [
        {
          "name": "name",
          "type": "string"
        },
        {
          "name": "age",
          "type": "uint8"
        },
        {
          "name": "id",
          "type": "address"
        },
        {
          "name": "files",
          "type": "bytes32"
        }
      ],
      "payable": false,
      "stateMutability": "view",
      "type": "function",
      "signature": "0x0869cfbc"
    },
    {
      "constant": true,
      "inputs": [
        {
          "name": "",
          "type": "address"
        }
      ],
      "name": "patienToFile",
      "outputs": [
        {
          "name": "",
          "type": "bytes32"
        }
      ],
      "payable": false,
      "stateMutability": "view",
      "type": "function",
      "signature": "0x2090b62d"
    },
    {
      "constant": true,
      "inputs": [],
      "name": "fileCount",
      "outputs": [
        {
          "name": "",
          "type": "uint32"
        }
      ],
      "payable": false,
      "stateMutability": "view",
      "type": "function",
      "signature": "0x43953519"
    },
    {
      "constant": true,
      "inputs": [],
      "name": "doctorInfo",
      "outputs": [
        {
          "name": "_name",
          "type": "string"
        },
        {
          "name": "list",
          "type": "address[]"
        }
      ],
      "payable": false,
      "stateMutability": "view",
      "type": "function",
      "signature": "0x51fd8dfd"
    },
    {
      "constant": true,
      "inputs": [
        {
          "name": "",
          "type": "address"
        },
        {
          "name": "",
          "type": "uint32"
        }
      ],
      "name": "doctorList",
      "outputs": [
        {
          "name": "",
          "type": "address"
        }
      ],
      "payable": false,
      "stateMutability": "view",
      "type": "function",
      "signature": "0x6c53eb45"
    },
    {
      "constant": true,
      "inputs": [
        {
          "name": "",
          "type": "address"
        },
        {
          "name": "",
          "type": "uint256"
        }
      ],
      "name": "patientsList",
      "outputs": [
        {
          "name": "",
          "type": "address"
        }
      ],
      "payable": false,
      "stateMutability": "view",
      "type": "function",
      "signature": "0x7e1616b4"
    },
    {
      "constant": true,
      "inputs": [],
      "name": "owner",
      "outputs": [
        {
          "name": "",
          "type": "address"
        }
      ],
      "payable": false,
      "stateMutability": "view",
      "type": "function",
      "signature": "0x8da5cb5b"
    },
    {
      "constant": true,
      "inputs": [
        {
          "name": "",
          "type": "address"
        },
        {
          "name": "",
          "type": "address"
        }
      ],
      "name": "patientToDoctor",
      "outputs": [
        {
          "name": "",
          "type": "uint256"
        }
      ],
      "payable": false,
      "stateMutability": "view",
      "type": "function",
      "signature": "0x9bdf364b"
    },
    {
      "constant": true,
      "inputs": [],
      "name": "patientCount",
      "outputs": [
        {
          "name": "",
          "type": "uint32"
        }
      ],
      "payable": false,
      "stateMutability": "view",
      "type": "function",
      "signature": "0xa0303c41"
    },
    {
      "constant": false,
      "inputs": [
        {
          "name": "_name",
          "type": "string"
        },
        {
          "name": "_age",
          "type": "uint8"
        }
      ],
      "name": "patientSignUp",
      "outputs": [],
      "payable": false,
      "stateMutability": "nonpayable",
      "type": "function",
      "signature": "0xab15ab45"
    },
    {
      "constant": false,
      "inputs": [
        {
          "name": "_name",
          "type": "string"
        }
      ],
      "name": "doctorSignUp",
      "outputs": [],
      "payable": false,
      "stateMutability": "nonpayable",
      "type": "function",
      "signature": "0xbdc46500"
    },
    {
      "inputs": [],
      "payable": false,
      "stateMutability": "nonpayable",
      "type": "constructor",
      "signature": "constructor"
    },
    {
      "constant": true,
      "inputs": [
        {
          "name": "_user",
          "type": "address"
        }
      ],
      "name": "checkProfile",
      "outputs": [
        {
          "name": "",
          "type": "string"
        },
        {
          "name": "",
          "type": "string"
        }
      ],
      "payable": false,
      "stateMutability": "view",
      "type": "function",
      "signature": "0x01d99258"
    },
    {
      "constant": false,
      "inputs": [
        {
          "name": "_file_name",
          "type": "string"
        },
        {
          "name": "_file_type",
          "type": "string"
        },
        {
          "name": "fileHashId",
          "type": "bytes32"
        },
        {
          "name": "_file_secret",
          "type": "string"
        }
      ],
      "name": "addFile",
      "outputs": [],
      "payable": false,
      "stateMutability": "nonpayable",
      "type": "function",
      "signature": "0x9f6a7a11"
    },
    {
      "constant": false,
      "inputs": [
        {
          "name": "_docterId",
          "type": "address"
        }
      ],
      "name": "grantAcessToDoctor",
      "outputs": [],
      "payable": false,
      "stateMutability": "nonpayable",
      "type": "function",
      "signature": "0x9372a6e8"
    },
    {
      "constant": true,
      "inputs": [
        {
          "name": "_pat",
          "type": "address"
        }
      ],
      "name": "getPatientInfoForDocter",
      "outputs": [
        {
          "name": "_name",
          "type": "string"
        },
        {
          "name": "age",
          "type": "uint256"
        },
        {
          "name": "id",
          "type": "address"
        },
        {
          "name": "files",
          "type": "bytes32"
        }
      ],
      "payable": false,
      "stateMutability": "view",
      "type": "function",
      "signature": "0x5d604a23"
    },
    {
      "constant": true,
      "inputs": [
        {
          "name": "doc",
          "type": "address"
        },
        {
          "name": "pat",
          "type": "address"
        },
        {
          "name": "fileHashId",
          "type": "bytes32"
        }
      ],
      "name": "getFileInfoDoctor",
      "outputs": [
        {
          "name": "name",
          "type": "string"
        },
        {
          "name": "types",
          "type": "string"
        }
      ],
      "payable": false,
      "stateMutability": "view",
      "type": "function",
      "signature": "0x7f34cf94"
    },
    {
      "constant": true,
      "inputs": [
        {
          "name": "pat",
          "type": "address"
        },
        {
          "name": "fileHashId",
          "type": "bytes32"
        }
      ],
      "name": "getFileInfoPatient",
      "outputs": [
        {
          "name": "name",
          "type": "string"
        },
        {
          "name": "types",
          "type": "string"
        }
      ],
      "payable": false,
      "stateMutability": "view",
      "type": "function",
      "signature": "0xb259832d"
    },
    {
      "constant": true,
      "inputs": [
        {
          "name": "fileHashId",
          "type": "bytes32"
        },
        {
          "name": "role",
          "type": "string"
        },
        {
          "name": "id",
          "type": "address"
        },
        {
          "name": "pat",
          "type": "address"
        }
      ],
      "name": "getFileSecret",
      "outputs": [
        {
          "name": "secret",
          "type": "string"
        }
      ],
      "payable": false,
      "stateMutability": "view",
      "type": "function",
      "signature": "0xcf954d45"
    }
  ],
  "bytecode": "0x60806040526001600860006101000a81548163ffffffff021916908363ffffffff1602179055506001600860046101000a81548163ffffffff021916908363ffffffff16021790555034801561005457600080fd5b50336008806101000a81548173ffffffffffffffffffffffffffffffffffffffff021916908373ffffffffffffffffffffffffffffffffffffffff16021790555061375a806100a46000396000f3fe608060405260043610610107576000357c0100000000000000000000000000000000000000000000000000000000900463ffffffff16806301d992581461010c57806301fb529e146102425780630869cfbc146103285780632090b62d14610439578063439535191461049e57806351fd8dfd146104d55780635d604a23146105ad5780636c53eb45146106b85780637e1616b4146107595780637f34cf94146107f45780638da5cb5b146109545780639372a6e8146109ab5780639bdf364b146109fc5780639f6a7a1114610a81578063a0303c4114610c81578063ab15ab4514610cb8578063b259832d14610d8d578063bdc4650014610ecd578063cf954d4514610f95575b600080fd5b34801561011857600080fd5b5061015b6004803603602081101561012f57600080fd5b81019080803573ffffffffffffffffffffffffffffffffffffffff169060200190929190505050611120565b604051808060200180602001838103835285818151815260200191508051906020019080838360005b8381101561019f578082015181840152602081019050610184565b50505050905090810190601f1680156101cc5780820380516001836020036101000a031916815260200191505b50838103825284818151815260200191508051906020019080838360005b838110156102055780820151818401526020810190506101ea565b50505050905090810190601f1680156102325780820380516001836020036101000a031916815260200191505b5094505050505060405180910390f35b34801561024e57600080fd5b5061025761155d565b604051808060200185815260200184815260200180602001838103835287818151815260200191508051906020019080838360005b838110156102a757808201518184015260208101905061028c565b50505050905090810190601f1680156102d45780820380516001836020036101000a031916815260200191505b50838103825284818151815260200191508051906020019060200280838360005b838110156103105780820151818401526020810190506102f5565b50505050905001965050505050505060405180910390f35b34801561033457600080fd5b506103776004803603602081101561034b57600080fd5b81019080803573ffffffffffffffffffffffffffffffffffffffff169060200190929190505050611b09565b60405180806020018560ff1660ff1681526020018473ffffffffffffffffffffffffffffffffffffffff1673ffffffffffffffffffffffffffffffffffffffff168152602001838152602001828103825286818151815260200191508051906020019080838360005b838110156103fb5780820151818401526020810190506103e0565b50505050905090810190601f1680156104285780820380516001836020036101000a031916815260200191505b509550505050505060405180910390f35b34801561044557600080fd5b506104886004803603602081101561045c57600080fd5b81019080803573ffffffffffffffffffffffffffffffffffffffff169060200190929190505050611bfe565b6040518082815260200191505060405180910390f35b3480156104aa57600080fd5b506104b3611c16565b604051808263ffffffff1663ffffffff16815260200191505060405180910390f35b3480156104e157600080fd5b506104ea611c2c565b604051808060200180602001838103835285818151815260200191508051906020019080838360005b8381101561052e578082015181840152602081019050610513565b50505050905090810190601f16801561055b5780820380516001836020036101000a031916815260200191505b50838103825284818151815260200191508051906020019060200280838360005b8381101561059757808201518184015260208101905061057c565b5050505090500194505050505060405180910390f35b3480156105b957600080fd5b506105fc600480360360208110156105d057600080fd5b81019080803573ffffffffffffffffffffffffffffffffffffffff169060200190929190505050611e53565b60405180806020018581526020018473ffffffffffffffffffffffffffffffffffffffff1673ffffffffffffffffffffffffffffffffffffffff168152602001838152602001828103825286818151815260200191508051906020019080838360005b8381101561067a57808201518184015260208101905061065f565b50505050905090810190601f1680156106a75780820380516001836020036101000a031916815260200191505b509550505050505060405180910390f35b3480156106c457600080fd5b50610717600480360360408110156106db57600080fd5b81019080803573ffffffffffffffffffffffffffffffffffffffff169060200190929190803563ffffffff169060200190929190505050612411565b604051808273ffffffffffffffffffffffffffffffffffffffff1673ffffffffffffffffffffffffffffffffffffffff16815260200191505060405180910390f35b34801561076557600080fd5b506107b26004803603604081101561077c57600080fd5b81019080803573ffffffffffffffffffffffffffffffffffffffff16906020019092919080359060200190929190505050612453565b604051808273ffffffffffffffffffffffffffffffffffffffff1673ffffffffffffffffffffffffffffffffffffffff16815260200191505060405180910390f35b34801561080057600080fd5b5061086d6004803603606081101561081757600080fd5b81019080803573ffffffffffffffffffffffffffffffffffffffff169060200190929190803573ffffffffffffffffffffffffffffffffffffffff169060200190929190803590602001909291905050506124a0565b604051808060200180602001838103835285818151815260200191508051906020019080838360005b838110156108b1578082015181840152602081019050610896565b50505050905090810190601f1680156108de5780820380516001836020036101000a031916815260200191505b50838103825284818151815260200191508051906020019080838360005b838110156109175780820151818401526020810190506108fc565b50505050905090810190601f1680156109445780820380516001836020036101000a031916815260200191505b5094505050505060405180910390f35b34801561096057600080fd5b506109696124d3565b604051808273ffffffffffffffffffffffffffffffffffffffff1673ffffffffffffffffffffffffffffffffffffffff16815260200191505060405180910390f35b3480156109b757600080fd5b506109fa600480360360208110156109ce57600080fd5b81019080803573ffffffffffffffffffffffffffffffffffffffff1690602001909291905050506124f8565b005b348015610a0857600080fd5b50610a6b60048036036040811015610a1f57600080fd5b81019080803573ffffffffffffffffffffffffffffffffffffffff169060200190929190803573ffffffffffffffffffffffffffffffffffffffff1690602001909291905050506127da565b6040518082815260200191505060405180910390f35b348015610a8d57600080fd5b50610c7f60048036036080811015610aa457600080fd5b8101908080359060200190640100000000811115610ac157600080fd5b820183602082011115610ad357600080fd5b80359060200191846001830284011164010000000083111715610af557600080fd5b91908080601f016020809104026020016040519081016040528093929190818152602001838380828437600081840152601f19601f82011690508083019250505050505050919291929080359060200190640100000000811115610b5857600080fd5b820183602082011115610b6a57600080fd5b80359060200191846001830284011164010000000083111715610b8c57600080fd5b91908080601f016020809104026020016040519081016040528093929190818152602001838380828437600081840152601f19601f8201169050808301925050505050505091929192908035906020019092919080359060200190640100000000811115610bf957600080fd5b820183602082011115610c0b57600080fd5b80359060200191846001830284011164010000000083111715610c2d57600080fd5b91908080601f016020809104026020016040519081016040528093929190818152602001838380828437600081840152601f19601f8201169050808301925050505050505091929192905050506127ff565b005b348015610c8d57600080fd5b50610c96612a42565b604051808263ffffffff1663ffffffff16815260200191505060405180910390f35b348015610cc457600080fd5b50610d8b60048036036040811015610cdb57600080fd5b8101908080359060200190640100000000811115610cf857600080fd5b820183602082011115610d0a57600080fd5b80359060200191846001830284011164010000000083111715610d2c57600080fd5b91908080601f016020809104026020016040519081016040528093929190818152602001838380828437600081840152601f19601f820116905080830192505050505050509192919290803560ff169060200190929190505050612a58565b005b348015610d9957600080fd5b50610de660048036036040811015610db057600080fd5b81019080803573ffffffffffffffffffffffffffffffffffffffff16906020019092919080359060200190929190505050612e2d565b604051808060200180602001838103835285818151815260200191508051906020019080838360005b83811015610e2a578082015181840152602081019050610e0f565b50505050905090810190601f168015610e575780820380516001836020036101000a031916815260200191505b50838103825284818151815260200191508051906020019080838360005b83811015610e90578082015181840152602081019050610e75565b50505050905090810190601f168015610ebd5780820380516001836020036101000a031916815260200191505b5094505050505060405180910390f35b348015610ed957600080fd5b50610f9360048036036020811015610ef057600080fd5b8101908080359060200190640100000000811115610f0d57600080fd5b820183602082011115610f1f57600080fd5b80359060200191846001830284011164010000000083111715610f4157600080fd5b91908080601f016020809104026020016040519081016040528093929190818152602001838380828437600081840152601f19601f820116905080830192505050505050509192919290505050612e5f565b005b348015610fa157600080fd5b506110a560048036036080811015610fb857600080fd5b810190808035906020019092919080359060200190640100000000811115610fdf57600080fd5b820183602082011115610ff157600080fd5b8035906020019184600183028401116401000000008311171561101357600080fd5b91908080601f016020809104026020016040519081016040528093929190818152602001838380828437600081840152601f19601f820116905080830192505050505050509192919290803573ffffffffffffffffffffffffffffffffffffffff169060200190929190803573ffffffffffffffffffffffffffffffffffffffff1690602001909291905050506131cc565b6040518080602001828103825283818151815260200191508051906020019080838360005b838110156110e55780820151818401526020810190506110ca565b50505050905090810190601f1680156111125780820380516001836020036101000a031916815260200191505b509250505060405180910390f35b60608061112b6135f2565b600460008573ffffffffffffffffffffffffffffffffffffffff1673ffffffffffffffffffffffffffffffffffffffff16815260200190815260200160002060806040519081016040529081600082018054600181600116156101000203166002900480601f01602080910402602001604051908101604052809291908181526020018280546001816001161561010002031660029004801561120f5780601f106111e45761010080835404028352916020019161120f565b820191906000526020600020905b8154815290600101906020018083116111f257829003601f168201915b505050505081526020016001820160009054906101000a900460ff1660ff1660ff1681526020016001820160019054906101000a900473ffffffffffffffffffffffffffffffffffffffff1673ffffffffffffffffffffffffffffffffffffffff1673ffffffffffffffffffffffffffffffffffffffff168152602001600282015481525050905061129f613637565b600260008673ffffffffffffffffffffffffffffffffffffffff1673ffffffffffffffffffffffffffffffffffffffff168152602001908152602001600020604080519081016040529081600082018054600181600116156101000203166002900480601f0160208091040260200160405190810160405280929190818152602001828054600181600116156101000203166002900480156113825780601f1061135757610100808354040283529160200191611382565b820191906000526020600020905b81548152906001019060200180831161136557829003601f168201915b505050505081526020016001820160009054906101000a900473ffffffffffffffffffffffffffffffffffffffff1673ffffffffffffffffffffffffffffffffffffffff1673ffffffffffffffffffffffffffffffffffffffff168152505090508473ffffffffffffffffffffffffffffffffffffffff16826040015173ffffffffffffffffffffffffffffffffffffffff1614156114645781600001518090506040805190810160405280600781526020017f70617469656e7400000000000000000000000000000000000000000000000000815250935093505050611558565b8473ffffffffffffffffffffffffffffffffffffffff16816020015173ffffffffffffffffffffffffffffffffffffffff1614156114e55780600001518090506040805190810160405280600681526020017f646f63746f720000000000000000000000000000000000000000000000000000815250935093505050611558565b6040805190810160405280600781526020017f64656661756c74000000000000000000000000000000000000000000000000008152506040805190810160405280600781526020017f64656661756c74000000000000000000000000000000000000000000000000008152509350935050505b915091565b606060008060603361156d6135f2565b600460008373ffffffffffffffffffffffffffffffffffffffff1673ffffffffffffffffffffffffffffffffffffffff16815260200190815260200160002060806040519081016040529081600082018054600181600116156101000203166002900480601f0160208091040260200160405190810160405280929190818152602001828054600181600116156101000203166002900480156116515780601f1061162657610100808354040283529160200191611651565b820191906000526020600020905b81548152906001019060200180831161163457829003601f168201915b505050505081526020016001820160009054906101000a900460ff1660ff1660ff1681526020016001820160019054906101000a900473ffffffffffffffffffffffffffffffffffffffff1673ffffffffffffffffffffffffffffffffffffffff1673ffffffffffffffffffffffffffffffffffffffff1681526020016002820154815250509050600073ffffffffffffffffffffffffffffffffffffffff16816040015173ffffffffffffffffffffffffffffffffffffffff16111515611781576040517f08c379a00000000000000000000000000000000000000000000000000000000081526004018080602001828103825260058152602001807f6e6f20696400000000000000000000000000000000000000000000000000000081525060200191505060405180910390fd5b6000600460003373ffffffffffffffffffffffffffffffffffffffff1673ffffffffffffffffffffffffffffffffffffffff16815260200190815260200160002090506001600860049054906101000a900463ffffffff1663ffffffff161115611a06576060600860049054906101000a900463ffffffff1663ffffffff1660405190808252806020026020018201604052801561182e5781602001602082028038833980820191505090505b50905060008090505b600860049054906101000a900463ffffffff1663ffffffff168163ffffffff1611151561193857600760003373ffffffffffffffffffffffffffffffffffffffff1673ffffffffffffffffffffffffffffffffffffffff16815260200190815260200160002060008263ffffffff1663ffffffff16815260200190815260200160002060009054906101000a900473ffffffffffffffffffffffffffffffffffffffff16828263ffffffff168151811015156118ef57fe5b9060200190602002019073ffffffffffffffffffffffffffffffffffffffff16908173ffffffffffffffffffffffffffffffffffffffff16815250508080600101915050611837565b50816000018260010160009054906101000a900460ff16836002015483838054600181600116156101000203166002900480601f0160208091040260200160405190810160405280929190818152602001828054600181600116156101000203166002900480156119ea5780601f106119bf576101008083540402835291602001916119ea565b820191906000526020600020905b8154815290600101906020018083116119cd57829003601f168201915b505050505093508260ff16925097509750975097505050611b01565b806000018160010160009054906101000a900460ff1682600201546000604051908082528060200260200182016040528015611a515781602001602082028038833980820191505090505b50838054600181600116156101000203166002900480601f016020809104026020016040519081016040528092919081815260200182805460018160011615610100020316600290048015611ae75780601f10611abc57610100808354040283529160200191611ae7565b820191906000526020600020905b815481529060010190602001808311611aca57829003601f168201915b505050505093508260ff1692508090509650965096509650505b505090919293565b6004602052806000526040600020600091509050806000018054600181600116156101000203166002900480601f016020809104026020016040519081016040528092919081815260200182805460018160011615610100020316600290048015611bb55780601f10611b8a57610100808354040283529160200191611bb5565b820191906000526020600020905b815481529060010190602001808311611b9857829003601f168201915b5050505050908060010160009054906101000a900460ff16908060010160019054906101000a900473ffffffffffffffffffffffffffffffffffffffff16908060020154905084565b60066020528060005260406000206000915090505481565b600860009054906101000a900463ffffffff1681565b606080611c37613637565b600260003373ffffffffffffffffffffffffffffffffffffffff1673ffffffffffffffffffffffffffffffffffffffff168152602001908152602001600020604080519081016040529081600082018054600181600116156101000203166002900480601f016020809104026020016040519081016040528092919081815260200182805460018160011615610100020316600290048015611d1a5780601f10611cef57610100808354040283529160200191611d1a565b820191906000526020600020905b815481529060010190602001808311611cfd57829003601f168201915b505050505081526020016001820160009054906101000a900473ffffffffffffffffffffffffffffffffffffffff1673ffffffffffffffffffffffffffffffffffffffff1673ffffffffffffffffffffffffffffffffffffffff168152505090508060000151600360003373ffffffffffffffffffffffffffffffffffffffff1673ffffffffffffffffffffffffffffffffffffffff16815260200190815260200160002081915080805480602002602001604051908101604052809291908181526020018280548015611e4357602002820191906000526020600020905b8160009054906101000a900473ffffffffffffffffffffffffffffffffffffffff1673ffffffffffffffffffffffffffffffffffffffff1681526020019060010190808311611df9575b5050505050905092509250509091565b6060600080600084611e636135f2565b600460008373ffffffffffffffffffffffffffffffffffffffff1673ffffffffffffffffffffffffffffffffffffffff16815260200190815260200160002060806040519081016040529081600082018054600181600116156101000203166002900480601f016020809104026020016040519081016040528092919081815260200182805460018160011615610100020316600290048015611f475780601f10611f1c57610100808354040283529160200191611f47565b820191906000526020600020905b815481529060010190602001808311611f2a57829003601f168201915b505050505081526020016001820160009054906101000a900460ff1660ff1660ff1681526020016001820160019054906101000a900473ffffffffffffffffffffffffffffffffffffffff1673ffffffffffffffffffffffffffffffffffffffff1673ffffffffffffffffffffffffffffffffffffffff1681526020016002820154815250509050600073ffffffffffffffffffffffffffffffffffffffff16816040015173ffffffffffffffffffffffffffffffffffffffff16111515612077576040517f08c379a00000000000000000000000000000000000000000000000000000000081526004018080602001828103825260058152602001807f6e6f20696400000000000000000000000000000000000000000000000000000081525060200191505060405180910390fd5b33612080613637565b600260008373ffffffffffffffffffffffffffffffffffffffff1673ffffffffffffffffffffffffffffffffffffffff168152602001908152602001600020604080519081016040529081600082018054600181600116156101000203166002900480601f0160208091040260200160405190810160405280929190818152602001828054600181600116156101000203166002900480156121635780601f1061213857610100808354040283529160200191612163565b820191906000526020600020905b81548152906001019060200180831161214657829003601f168201915b505050505081526020016001820160009054906101000a900473ffffffffffffffffffffffffffffffffffffffff1673ffffffffffffffffffffffffffffffffffffffff1673ffffffffffffffffffffffffffffffffffffffff16815250509050600073ffffffffffffffffffffffffffffffffffffffff16816020015173ffffffffffffffffffffffffffffffffffffffff1611151561226c576040517f08c379a00000000000000000000000000000000000000000000000000000000081526004018080602001828103825260058152602001807f6e6f20696400000000000000000000000000000000000000000000000000000081525060200191505060405180910390fd5b6122746135f2565b600460008b73ffffffffffffffffffffffffffffffffffffffff1673ffffffffffffffffffffffffffffffffffffffff16815260200190815260200160002060806040519081016040529081600082018054600181600116156101000203166002900480601f0160208091040260200160405190810160405280929190818152602001828054600181600116156101000203166002900480156123585780601f1061232d57610100808354040283529160200191612358565b820191906000526020600020905b81548152906001019060200180831161233b57829003601f168201915b505050505081526020016001820160009054906101000a900460ff1660ff1660ff1681526020016001820160019054906101000a900473ffffffffffffffffffffffffffffffffffffffff1673ffffffffffffffffffffffffffffffffffffffff1673ffffffffffffffffffffffffffffffffffffffff168152602001600282015481525050905080600001518160200151826040015183606001518393508260ff169250985098509850985050505050509193509193565b60076020528160005260406000206020528060005260406000206000915091509054906101000a900473ffffffffffffffffffffffffffffffffffffffff1681565b60036020528160005260406000208181548110151561246e57fe5b906000526020600020016000915091509054906101000a900473ffffffffffffffffffffffffffffffffffffffff1681565b6060806124ab613667565b6124b4846133df565b9050806000015181602001518191508090509250925050935093915050565b6008809054906101000a900473ffffffffffffffffffffffffffffffffffffffff1681565b6000600460003373ffffffffffffffffffffffffffffffffffffffff1673ffffffffffffffffffffffffffffffffffffffff16815260200190815260200160002090506001600560003373ffffffffffffffffffffffffffffffffffffffff1673ffffffffffffffffffffffffffffffffffffffff16815260200190815260200160002060008473ffffffffffffffffffffffffffffffffffffffff1673ffffffffffffffffffffffffffffffffffffffff168152602001908152602001600020541015156125c657600080fd5b81600760003373ffffffffffffffffffffffffffffffffffffffff1673ffffffffffffffffffffffffffffffffffffffff16815260200190815260200160002060006008600481819054906101000a900463ffffffff168092919060010191906101000a81548163ffffffff021916908363ffffffff16021790555063ffffffff1663ffffffff16815260200190815260200160002060006101000a81548173ffffffffffffffffffffffffffffffffffffffff021916908373ffffffffffffffffffffffffffffffffffffffff160217905550600860049054906101000a900463ffffffff1663ffffffff16600560003373ffffffffffffffffffffffffffffffffffffffff1673ffffffffffffffffffffffffffffffffffffffff16815260200190815260200160002060008473ffffffffffffffffffffffffffffffffffffffff1673ffffffffffffffffffffffffffffffffffffffff16815260200190815260200160002081905550600360008373ffffffffffffffffffffffffffffffffffffffff1673ffffffffffffffffffffffffffffffffffffffff1681526020019081526020016000203390806001815401808255809150509060018203906000526020600020016000909192909190916101000a81548173ffffffffffffffffffffffffffffffffffffffff021916908373ffffffffffffffffffffffffffffffffffffffff160217905550505050565b6005602052816000526040600020602052806000526040600020600091509150505481565b6128076135f2565b600460003373ffffffffffffffffffffffffffffffffffffffff1673ffffffffffffffffffffffffffffffffffffffff16815260200190815260200160002060806040519081016040529081600082018054600181600116156101000203166002900480601f0160208091040260200160405190810160405280929190818152602001828054600181600116156101000203166002900480156128eb5780601f106128c0576101008083540402835291602001916128eb565b820191906000526020600020905b8154815290600101906020018083116128ce57829003601f168201915b505050505081526020016001820160009054906101000a900460ff1660ff1660ff1681526020016001820160019054906101000a900473ffffffffffffffffffffffffffffffffffffffff1673ffffffffffffffffffffffffffffffffffffffff1673ffffffffffffffffffffffffffffffffffffffff16815260200160028201548152505090506060604051908101604052808681526020018581526020018381525060008085815260200190815260200160002060008201518160000190805190602001906129bd929190613689565b5060208201518160010190805190602001906129da929190613689565b5060408201518160020190805190602001906129f7929190613689565b50905050828160600181815250506001600860009054906101000a900463ffffffff1601600860006101000a81548163ffffffff021916908363ffffffff1602179055505050505050565b600860049054906101000a900463ffffffff1681565b816040516020018082805190602001908083835b602083101515612a915780518252602082019150602081019050602083039250612a6c565b6001836020036101000a038019825116818451168082178552505050505050905001915050604051602081830303815290604052805190602001206040516020018060000190506040516020818303038152906040528051906020012014151515612afb57600080fd5b612b036135f2565b600460003373ffffffffffffffffffffffffffffffffffffffff1673ffffffffffffffffffffffffffffffffffffffff16815260200190815260200160002060806040519081016040529081600082018054600181600116156101000203166002900480601f016020809104026020016040519081016040528092919081815260200182805460018160011615610100020316600290048015612be75780601f10612bbc57610100808354040283529160200191612be7565b820191906000526020600020905b815481529060010190602001808311612bca57829003601f168201915b505050505081526020016001820160009054906101000a900460ff1660ff1660ff1681526020016001820160019054906101000a900473ffffffffffffffffffffffffffffffffffffffff1673ffffffffffffffffffffffffffffffffffffffff1673ffffffffffffffffffffffffffffffffffffffff1681526020016002820154815250509050600073ffffffffffffffffffffffffffffffffffffffff16816040015173ffffffffffffffffffffffffffffffffffffffff1611151515612d18576040517f08c379a00000000000000000000000000000000000000000000000000000000081526004018080602001828103825260108152602001807f494420414c52454144592045584953540000000000000000000000000000000081525060200191505060405180910390fd5b6080604051908101604052808481526020018360ff1681526020013373ffffffffffffffffffffffffffffffffffffffff1681526020016000801916815250600460003373ffffffffffffffffffffffffffffffffffffffff1673ffffffffffffffffffffffffffffffffffffffff1681526020019081526020016000206000820151816000019080519060200190612db2929190613689565b5060208201518160010160006101000a81548160ff021916908360ff16021790555060408201518160010160016101000a81548173ffffffffffffffffffffffffffffffffffffffff021916908373ffffffffffffffffffffffffffffffffffffffff16021790555060608201518160020155905050505050565b606080612e38613667565b612e41846133df565b90508060000151816020015181915080905092509250509250929050565b806040516020018082805190602001908083835b602083101515612e985780518252602082019150602081019050602083039250612e73565b6001836020036101000a038019825116818451168082178552505050505050905001915050604051602081830303815290604052805190602001206040516020018060000190506040516020818303038152906040528051906020012014151515612f0257600080fd5b612f0a613637565b600260003373ffffffffffffffffffffffffffffffffffffffff1673ffffffffffffffffffffffffffffffffffffffff168152602001908152602001600020604080519081016040529081600082018054600181600116156101000203166002900480601f016020809104026020016040519081016040528092919081815260200182805460018160011615610100020316600290048015612fed5780601f10612fc257610100808354040283529160200191612fed565b820191906000526020600020905b815481529060010190602001808311612fd057829003601f168201915b505050505081526020016001820160009054906101000a900473ffffffffffffffffffffffffffffffffffffffff1673ffffffffffffffffffffffffffffffffffffffff1673ffffffffffffffffffffffffffffffffffffffff16815250509050600073ffffffffffffffffffffffffffffffffffffffff16816020015173ffffffffffffffffffffffffffffffffffffffff16111515156130f7576040517f08c379a00000000000000000000000000000000000000000000000000000000081526004018080602001828103825260108152602001807f494420414c52454144592045584953540000000000000000000000000000000081525060200191505060405180910390fd5b60408051908101604052808381526020013373ffffffffffffffffffffffffffffffffffffffff16815250600260003373ffffffffffffffffffffffffffffffffffffffff1673ffffffffffffffffffffffffffffffffffffffff168152602001908152602001600020600082015181600001908051906020019061317d929190613689565b5060208201518160010160006101000a81548173ffffffffffffffffffffffffffffffffffffffff021916908373ffffffffffffffffffffffffffffffffffffffff1602179055509050505050565b60608460606000808381526020019081526020016000206000018054600181600116156101000203166002900480601f01602080910402602001604051908101604052809291908181526020018280546001816001161561010002031660029004801561327a5780601f1061324f5761010080835404028352916020019161327a565b820191906000526020600020905b81548152906001019060200180831161325d57829003601f168201915b505050505090506000815111151561329157600080fd5b8585888660405160200180807f646f63746f72000000000000000000000000000000000000000000000000000081525060060190506040516020818303038152906040528051906020012060405160200180807f726f6c65000000000000000000000000000000000000000000000000000000008152506004019050604051602081830303815290604052805190602001201415156133b6576000600560008373ffffffffffffffffffffffffffffffffffffffff1673ffffffffffffffffffffffffffffffffffffffff16815260200190815260200160002060008573ffffffffffffffffffffffffffffffffffffffff1673ffffffffffffffffffffffffffffffffffffffff168152602001908152602001600020541115156133b557600080fd5b5b6133be613667565b6133c78c6133df565b90508060400151975050505050505050949350505050565b6133e7613667565b60008083815260200190815260200160002060606040519081016040529081600082018054600181600116156101000203166002900480601f01602080910402602001604051908101604052809291908181526020018280546001816001161561010002031660029004801561349e5780601f106134735761010080835404028352916020019161349e565b820191906000526020600020905b81548152906001019060200180831161348157829003601f168201915b50505050508152602001600182018054600181600116156101000203166002900480601f0160208091040260200160405190810160405280929190818152602001828054600181600116156101000203166002900480156135405780601f1061351557610100808354040283529160200191613540565b820191906000526020600020905b81548152906001019060200180831161352357829003601f168201915b50505050508152602001600282018054600181600116156101000203166002900480601f0160208091040260200160405190810160405280929190818152602001828054600181600116156101000203166002900480156135e25780601f106135b7576101008083540402835291602001916135e2565b820191906000526020600020905b8154815290600101906020018083116135c557829003601f168201915b5050505050815250509050919050565b60806040519081016040528060608152602001600060ff168152602001600073ffffffffffffffffffffffffffffffffffffffff168152602001600080191681525090565b604080519081016040528060608152602001600073ffffffffffffffffffffffffffffffffffffffff1681525090565b6060604051908101604052806060815260200160608152602001606081525090565b828054600181600116156101000203166002900490600052602060002090601f016020900481019282601f106136ca57805160ff19168380011785556136f8565b828001600101855582156136f8579182015b828111156136f75782518255916020019190600101906136dc565b5b5090506137059190613709565b5090565b61372b91905b8082111561372757600081600090555060010161370f565b5090565b9056fea165627a7a723058207cb03b6e7549004cfe19b9e0151e5de9066b9e5a2ec1dcac753f685e42cfaf910029",
  "source": "pragma solidity >=0.4.21 <0.7.0;\n \n\n import \"./doctor.sol\";\nimport \"./patient.sol\";\nimport \"./file.sol\";\nimport \"./ownable.sol\";\n\ncontract HealthCare is File,Doctor,Patient{\n    address public owner;\n   \n    \n\n    constructor() public {\n        owner= msg.sender;\n    }\n     modifier onlyowner(){\n        require(msg.sender== owner);\n        _;\n    }\n\n    modifier CheckfileAccess(string memory role,address id,bytes32 fileHashId,address pat){\n        // uint256  pos ;\n        \n        if(keccak256(abi.encodePacked(\"role\"))!=keccak256(abi.encodePacked(\"doctor\"))){\n         require(patientToDoctor[pat][id] > 0);\n            //  pos = patienToFile[pat][fileHashId];\n            // require(pos > 0);\n        }\n        // if(keccak256(abi.encodePacked(\"role\"))!=keccak256(abi.encodePacked(\"patient\"))){\n        //        bytes32 pos = patienToFile[id];\n        //         require(pos); \n        // }\n        _;\n    }\n\nfunction checkProfile(address _user) public view returns(string memory, string memory){\n      patient memory p = patients[_user];\n      doctor memory d = doctors[_user];\n      \n      if(p.id == _user)\n          return (p.name, 'patient');\n      else if(d.id == _user)\n          return (d.name, 'doctor');\n      else\n          return ('default', 'default');\n  }\n  \n    \n\n    function addFile(string memory _file_name,string memory _file_type,bytes32  fileHashId,string memory _file_secret) public {\n      \n         patient memory p = patients[msg.sender];\n        // require (patienToFile[msg.sender][fileHashId]<1);//checking already exist \n\n        hashInfo[fileHashId]=filesInfo({file_name:_file_name,file_type:_file_type,file_secret:_file_secret});\n        \n        p.files=fileHashId;\n       \n        // patienToFile[msg.sender][fileHashId]=fileCount;\n        fileCount=fileCount+1;\n\n    }\n\n    function grantAcessToDoctor(address  _docterId) public {\n        patient storage p = patients[msg.sender];\n        // doctor memory d = doctors[_docterId];\n\n        require(patientToDoctor[msg.sender][_docterId]<1);//already hav permission\n    \n        // uint pos= p.doctorList.push(_docterId);\n        doctorList[msg.sender][patientCount++]=_docterId;\n        patientToDoctor[msg.sender][_docterId]=patientCount;\n        patientsList[_docterId].push(msg.sender);\n    \n    }\n\n    function getPatientInfoForDocter(address  _pat) public view patientExits(_pat) doctorExist(msg.sender) returns(string memory _name,uint age,address id,bytes32  files ){\n      patient memory p = patients[_pat]; \n    //   require(doctorToPainent[msg.sender][_pat]>1);\n      return  (p.name,p.age,p.id,p.files);\n    }\n\n\n\n    function getFileInfoDoctor(address    doc, address   pat, bytes32  fileHashId) public view returns (string memory name, string memory types){\n        filesInfo memory f= getFileInfo(fileHashId);\n        return(f.file_name,f.file_type);\n    }\n\n\n     function getFileInfoPatient(address    pat,  bytes32   fileHashId) public view returns (string memory name, string memory types){\n            filesInfo memory f= getFileInfo(fileHashId);\n        return(f.file_name,f.file_type);\n     }\n\n     function getFileSecret(bytes32  fileHashId,string memory role,address  id,address   pat) public view  fileCheck(fileHashId) CheckfileAccess(role,id,fileHashId,pat) returns (string memory secret) {\n                 filesInfo memory f= getFileInfo(fileHashId);\n                 return(f.file_secret);\n\n\n     }\n\n\n}",
  "sourcePath": "/home/vishnuskrishnan/hacktonMedica/src/contracts/helthcare.sol",
  "compiler": {
    "name": "solc",
    "version": "0.5.0+commit.1d4f565a.Emscripten.clang"
  },
  "schemaVersion": "3.0.2",
  "updatedAt": "2020-06-16T15:41:33.101Z",
  "devdoc": {
    "methods": {}
  },
  "userdoc": {
    "methods": {}
  }
}