{
  "contractName": "HealthCare",
  "abi": [
    {
      "constant": true,
      "inputs": [],
      "name": "patientInfo",
      "outputs": [
        {
          "name": "_name",
          "type": "string"
        },
        {
          "name": "_age",
          "type": "uint256"
        },
        {
          "name": "_files",
          "type": "bytes32"
        },
        {
          "name": "_list",
          "type": "address[]"
        }
      ],
      "payable": false,
      "stateMutability": "view",
      "type": "function",
      "signature": "0x01fb529e"
    },
    {
      "constant": true,
      "inputs": [
        {
          "name": "",
          "type": "address"
        }
      ],
      "name": "patients",
      "outputs": [
        {
          "name": "name",
          "type": "string"
        },
        {
          "name": "age",
          "type": "uint8"
        },
        {
          "name": "id",
          "type": "address"
        },
        {
          "name": "files",
          "type": "bytes32"
        }
      ],
      "payable": false,
      "stateMutability": "view",
      "type": "function",
      "signature": "0x0869cfbc"
    },
    {
      "constant": true,
      "inputs": [
        {
          "name": "",
          "type": "address"
        }
      ],
      "name": "patienToFile",
      "outputs": [
        {
          "name": "",
          "type": "bytes32"
        }
      ],
      "payable": false,
      "stateMutability": "view",
      "type": "function",
      "signature": "0x2090b62d"
    },
    {
      "constant": true,
      "inputs": [],
      "name": "fileCount",
      "outputs": [
        {
          "name": "",
          "type": "uint256"
        }
      ],
      "payable": false,
      "stateMutability": "view",
      "type": "function",
      "signature": "0x43953519"
    },
    {
      "constant": true,
      "inputs": [],
      "name": "doctorInfo",
      "outputs": [
        {
          "name": "_name",
          "type": "string"
        },
        {
          "name": "list",
          "type": "address[]"
        }
      ],
      "payable": false,
      "stateMutability": "view",
      "type": "function",
      "signature": "0x51fd8dfd"
    },
    {
      "constant": true,
      "inputs": [],
      "name": "owner",
      "outputs": [
        {
          "name": "",
          "type": "address"
        }
      ],
      "payable": false,
      "stateMutability": "view",
      "type": "function",
      "signature": "0x8da5cb5b"
    },
    {
      "constant": true,
      "inputs": [
        {
          "name": "",
          "type": "address"
        },
        {
          "name": "",
          "type": "address"
        }
      ],
      "name": "patientToDoctor",
      "outputs": [
        {
          "name": "",
          "type": "uint256"
        }
      ],
      "payable": false,
      "stateMutability": "view",
      "type": "function",
      "signature": "0x9bdf364b"
    },
    {
      "constant": true,
      "inputs": [],
      "name": "patientCount",
      "outputs": [
        {
          "name": "",
          "type": "uint256"
        }
      ],
      "payable": false,
      "stateMutability": "view",
      "type": "function",
      "signature": "0xa0303c41"
    },
    {
      "constant": false,
      "inputs": [
        {
          "name": "_name",
          "type": "string"
        },
        {
          "name": "_age",
          "type": "uint8"
        }
      ],
      "name": "patientSignUp",
      "outputs": [],
      "payable": false,
      "stateMutability": "nonpayable",
      "type": "function",
      "signature": "0xab15ab45"
    },
    {
      "constant": false,
      "inputs": [
        {
          "name": "_name",
          "type": "string"
        }
      ],
      "name": "doctorSignUp",
      "outputs": [],
      "payable": false,
      "stateMutability": "nonpayable",
      "type": "function",
      "signature": "0xbdc46500"
    },
    {
      "inputs": [],
      "payable": false,
      "stateMutability": "nonpayable",
      "type": "constructor",
      "signature": "constructor"
    },
    {
      "constant": true,
      "inputs": [
        {
          "name": "_user",
          "type": "address"
        }
      ],
      "name": "checkProfile",
      "outputs": [
        {
          "name": "",
          "type": "string"
        },
        {
          "name": "",
          "type": "string"
        }
      ],
      "payable": false,
      "stateMutability": "view",
      "type": "function",
      "signature": "0x01d99258"
    },
    {
      "constant": false,
      "inputs": [
        {
          "name": "_file_name",
          "type": "string"
        },
        {
          "name": "_file_type",
          "type": "string"
        },
        {
          "name": "fileHashId",
          "type": "bytes32"
        },
        {
          "name": "_file_secret",
          "type": "string"
        }
      ],
      "name": "addFile",
      "outputs": [],
      "payable": false,
      "stateMutability": "nonpayable",
      "type": "function",
      "signature": "0x9f6a7a11"
    },
    {
      "constant": false,
      "inputs": [
        {
          "name": "_docterId",
          "type": "address"
        }
      ],
      "name": "grantAcessToDoctor",
      "outputs": [],
      "payable": false,
      "stateMutability": "nonpayable",
      "type": "function",
      "signature": "0x9372a6e8"
    },
    {
      "constant": true,
      "inputs": [
        {
          "name": "_pat",
          "type": "address"
        }
      ],
      "name": "getPatientInfoForDocter",
      "outputs": [
        {
          "name": "_name",
          "type": "string"
        },
        {
          "name": "age",
          "type": "uint256"
        },
        {
          "name": "id",
          "type": "address"
        },
        {
          "name": "files",
          "type": "bytes32"
        }
      ],
      "payable": false,
      "stateMutability": "view",
      "type": "function",
      "signature": "0x5d604a23"
    },
    {
      "constant": true,
      "inputs": [
        {
          "name": "doc",
          "type": "address"
        },
        {
          "name": "pat",
          "type": "address"
        },
        {
          "name": "fileHashId",
          "type": "bytes32"
        }
      ],
      "name": "getFileInfoDoctor",
      "outputs": [
        {
          "name": "name",
          "type": "string"
        },
        {
          "name": "types",
          "type": "string"
        }
      ],
      "payable": false,
      "stateMutability": "view",
      "type": "function",
      "signature": "0x7f34cf94"
    },
    {
      "constant": true,
      "inputs": [
        {
          "name": "pat",
          "type": "address"
        },
        {
          "name": "fileHashId",
          "type": "bytes32"
        }
      ],
      "name": "getFileInfoPatient",
      "outputs": [
        {
          "name": "name",
          "type": "string"
        },
        {
          "name": "types",
          "type": "string"
        }
      ],
      "payable": false,
      "stateMutability": "view",
      "type": "function",
      "signature": "0xb259832d"
    },
    {
      "constant": true,
      "inputs": [
        {
          "name": "fileHashId",
          "type": "bytes32"
        },
        {
          "name": "role",
          "type": "string"
        },
        {
          "name": "id",
          "type": "address"
        },
        {
          "name": "pat",
          "type": "address"
        }
      ],
      "name": "getFileSecret",
      "outputs": [
        {
          "name": "secret",
          "type": "string"
        }
      ],
      "payable": false,
      "stateMutability": "view",
      "type": "function",
      "signature": "0xcf954d45"
    }
  ],
  "bytecode": "0x60806040526000600655600060075534801561001a57600080fd5b5033600860006101000a81548173ffffffffffffffffffffffffffffffffffffffff021916908373ffffffffffffffffffffffffffffffffffffffff1602179055506143308061006b6000396000f3fe6080604052600436106100f1576000357c0100000000000000000000000000000000000000000000000000000000900463ffffffff16806301d99258146100f657806301fb529e1461022c5780630869cfbc146103125780632090b62d14610423578063439535191461048857806351fd8dfd146104b35780635d604a231461058b5780637f34cf94146106965780638da5cb5b146107f65780639372a6e81461084d5780639bdf364b1461089e5780639f6a7a1114610923578063a0303c4114610b23578063ab15ab4514610b4e578063b259832d14610c23578063bdc4650014610d63578063cf954d4514610e2b575b600080fd5b34801561010257600080fd5b506101456004803603602081101561011957600080fd5b81019080803573ffffffffffffffffffffffffffffffffffffffff169060200190929190505050610fb6565b604051808060200180602001838103835285818151815260200191508051906020019080838360005b8381101561018957808201518184015260208101905061016e565b50505050905090810190601f1680156101b65780820380516001836020036101000a031916815260200191505b50838103825284818151815260200191508051906020019080838360005b838110156101ef5780820151818401526020810190506101d4565b50505050905090810190601f16801561021c5780820380516001836020036101000a031916815260200191505b5094505050505060405180910390f35b34801561023857600080fd5b50610241611482565b604051808060200185815260200184815260200180602001838103835287818151815260200191508051906020019080838360005b83811015610291578082015181840152602081019050610276565b50505050905090810190601f1680156102be5780820380516001836020036101000a031916815260200191505b50838103825284818151815260200191508051906020019060200280838360005b838110156102fa5780820151818401526020810190506102df565b50505050905001965050505050505060405180910390f35b34801561031e57600080fd5b506103616004803603602081101561033557600080fd5b81019080803573ffffffffffffffffffffffffffffffffffffffff16906020019092919050505061199b565b60405180806020018560ff1660ff1681526020018473ffffffffffffffffffffffffffffffffffffffff1673ffffffffffffffffffffffffffffffffffffffff168152602001838152602001828103825286818151815260200191508051906020019080838360005b838110156103e55780820151818401526020810190506103ca565b50505050905090810190601f1680156104125780820380516001836020036101000a031916815260200191505b509550505050505060405180910390f35b34801561042f57600080fd5b506104726004803603602081101561044657600080fd5b81019080803573ffffffffffffffffffffffffffffffffffffffff169060200190929190505050611a90565b6040518082815260200191505060405180910390f35b34801561049457600080fd5b5061049d611aa8565b6040518082815260200191505060405180910390f35b3480156104bf57600080fd5b506104c8611aae565b604051808060200180602001838103835285818151815260200191508051906020019080838360005b8381101561050c5780820151818401526020810190506104f1565b50505050905090810190601f1680156105395780820380516001836020036101000a031916815260200191505b50838103825284818151815260200191508051906020019060200280838360005b8381101561057557808201518184015260208101905061055a565b5050505090500194505050505060405180910390f35b34801561059757600080fd5b506105da600480360360208110156105ae57600080fd5b81019080803573ffffffffffffffffffffffffffffffffffffffff169060200190929190505050611ca5565b60405180806020018581526020018473ffffffffffffffffffffffffffffffffffffffff1673ffffffffffffffffffffffffffffffffffffffff168152602001838152602001828103825286818151815260200191508051906020019080838360005b8381101561065857808201518184015260208101905061063d565b50505050905090810190601f1680156106855780820380516001836020036101000a031916815260200191505b509550505050505060405180910390f35b3480156106a257600080fd5b5061070f600480360360608110156106b957600080fd5b81019080803573ffffffffffffffffffffffffffffffffffffffff169060200190929190803573ffffffffffffffffffffffffffffffffffffffff1690602001909291908035906020019092919050505061237c565b604051808060200180602001838103835285818151815260200191508051906020019080838360005b83811015610753578082015181840152602081019050610738565b50505050905090810190601f1680156107805780820380516001836020036101000a031916815260200191505b50838103825284818151815260200191508051906020019080838360005b838110156107b957808201518184015260208101905061079e565b50505050905090810190601f1680156107e65780820380516001836020036101000a031916815260200191505b5094505050505060405180910390f35b34801561080257600080fd5b5061080b612a0e565b604051808273ffffffffffffffffffffffffffffffffffffffff1673ffffffffffffffffffffffffffffffffffffffff16815260200191505060405180910390f35b34801561085957600080fd5b5061089c6004803603602081101561087057600080fd5b81019080803573ffffffffffffffffffffffffffffffffffffffff169060200190929190505050612a34565b005b3480156108aa57600080fd5b5061090d600480360360408110156108c157600080fd5b81019080803573ffffffffffffffffffffffffffffffffffffffff169060200190929190803573ffffffffffffffffffffffffffffffffffffffff169060200190929190505050613232565b6040518082815260200191505060405180910390f35b34801561092f57600080fd5b50610b216004803603608081101561094657600080fd5b810190808035906020019064010000000081111561096357600080fd5b82018360208201111561097557600080fd5b8035906020019184600183028401116401000000008311171561099757600080fd5b91908080601f016020809104026020016040519081016040528093929190818152602001838380828437600081840152601f19601f820116905080830192505050505050509192919290803590602001906401000000008111156109fa57600080fd5b820183602082011115610a0c57600080fd5b80359060200191846001830284011164010000000083111715610a2e57600080fd5b91908080601f016020809104026020016040519081016040528093929190818152602001838380828437600081840152601f19601f8201169050808301925050505050505091929192908035906020019092919080359060200190640100000000811115610a9b57600080fd5b820183602082011115610aad57600080fd5b80359060200191846001830284011164010000000083111715610acf57600080fd5b91908080601f016020809104026020016040519081016040528093929190818152602001838380828437600081840152601f19601f820116905080830192505050505050509192919290505050613257565b005b348015610b2f57600080fd5b50610b38613470565b6040518082815260200191505060405180910390f35b348015610b5a57600080fd5b50610c2160048036036040811015610b7157600080fd5b8101908080359060200190640100000000811115610b8e57600080fd5b820183602082011115610ba057600080fd5b80359060200191846001830284011164010000000083111715610bc257600080fd5b91908080601f016020809104026020016040519081016040528093929190818152602001838380828437600081840152601f19601f820116905080830192505050505050509192919290803560ff169060200190929190505050613476565b005b348015610c2f57600080fd5b50610c7c60048036036040811015610c4657600080fd5b81019080803573ffffffffffffffffffffffffffffffffffffffff1690602001909291908035906020019092919050505061384b565b604051808060200180602001838103835285818151815260200191508051906020019080838360005b83811015610cc0578082015181840152602081019050610ca5565b50505050905090810190601f168015610ced5780820380516001836020036101000a031916815260200191505b50838103825284818151815260200191508051906020019080838360005b83811015610d26578082015181840152602081019050610d0b565b50505050905090810190601f168015610d535780820380516001836020036101000a031916815260200191505b5094505050505060405180910390f35b348015610d6f57600080fd5b50610e2960048036036020811015610d8657600080fd5b8101908080359060200190640100000000811115610da357600080fd5b820183602082011115610db557600080fd5b80359060200191846001830284011164010000000083111715610dd757600080fd5b91908080601f016020809104026020016040519081016040528093929190818152602001838380828437600081840152601f19601f82011690508083019250505050505050919291929050505061387d565b005b348015610e3757600080fd5b50610f3b60048036036080811015610e4e57600080fd5b810190808035906020019092919080359060200190640100000000811115610e7557600080fd5b820183602082011115610e8757600080fd5b80359060200191846001830284011164010000000083111715610ea957600080fd5b91908080601f016020809104026020016040519081016040528093929190818152602001838380828437600081840152601f19601f820116905080830192505050505050509192919290803573ffffffffffffffffffffffffffffffffffffffff169060200190929190803573ffffffffffffffffffffffffffffffffffffffff169060200190929190505050613ccd565b6040518080602001828103825283818151815260200191508051906020019080838360005b83811015610f7b578082015181840152602081019050610f60565b50505050905090810190601f168015610fa85780820380516001836020036101000a031916815260200191505b509250505060405180910390f35b606080610fc16140f3565b600360008573ffffffffffffffffffffffffffffffffffffffff1673ffffffffffffffffffffffffffffffffffffffff16815260200190815260200160002060806040519081016040529081600082018054600181600116156101000203166002900480601f0160208091040260200160405190810160405280929190818152602001828054600181600116156101000203166002900480156110a55780601f1061107a576101008083540402835291602001916110a5565b820191906000526020600020905b81548152906001019060200180831161108857829003601f168201915b505050505081526020016001820160009054906101000a900460ff1660ff1660ff1681526020016001820160019054906101000a900473ffffffffffffffffffffffffffffffffffffffff1673ffffffffffffffffffffffffffffffffffffffff1673ffffffffffffffffffffffffffffffffffffffff1681526020016002820154815250509050611135614138565b600260008673ffffffffffffffffffffffffffffffffffffffff1673ffffffffffffffffffffffffffffffffffffffff16815260200190815260200160002060606040519081016040529081600082018054600181600116156101000203166002900480601f0160208091040260200160405190810160405280929190818152602001828054600181600116156101000203166002900480156112195780601f106111ee57610100808354040283529160200191611219565b820191906000526020600020905b8154815290600101906020018083116111fc57829003601f168201915b505050505081526020016001820160009054906101000a900473ffffffffffffffffffffffffffffffffffffffff1673ffffffffffffffffffffffffffffffffffffffff1673ffffffffffffffffffffffffffffffffffffffff168152602001600282018054806020026020016040519081016040528092919081815260200182805480156112fd57602002820191906000526020600020905b8160009054906101000a900473ffffffffffffffffffffffffffffffffffffffff1673ffffffffffffffffffffffffffffffffffffffff16815260200190600101908083116112b3575b50505050508152505090508473ffffffffffffffffffffffffffffffffffffffff16826040015173ffffffffffffffffffffffffffffffffffffffff1614156113895781600001518090506040805190810160405280600781526020017f70617469656e740000000000000000000000000000000000000000000000000081525093509350505061147d565b8473ffffffffffffffffffffffffffffffffffffffff16816020015173ffffffffffffffffffffffffffffffffffffffff16141561140a5780600001518090506040805190810160405280600681526020017f646f63746f72000000000000000000000000000000000000000000000000000081525093509350505061147d565b6040805190810160405280600781526020017f64656661756c74000000000000000000000000000000000000000000000000008152506040805190810160405280600781526020017f64656661756c74000000000000000000000000000000000000000000000000008152509350935050505b915091565b60606000806060336114926140f3565b600360008373ffffffffffffffffffffffffffffffffffffffff1673ffffffffffffffffffffffffffffffffffffffff16815260200190815260200160002060806040519081016040529081600082018054600181600116156101000203166002900480601f0160208091040260200160405190810160405280929190818152602001828054600181600116156101000203166002900480156115765780601f1061154b57610100808354040283529160200191611576565b820191906000526020600020905b81548152906001019060200180831161155957829003601f168201915b505050505081526020016001820160009054906101000a900460ff1660ff1660ff1681526020016001820160019054906101000a900473ffffffffffffffffffffffffffffffffffffffff1673ffffffffffffffffffffffffffffffffffffffff1673ffffffffffffffffffffffffffffffffffffffff1681526020016002820154815250509050600073ffffffffffffffffffffffffffffffffffffffff16816040015173ffffffffffffffffffffffffffffffffffffffff161115156116a6576040517f08c379a00000000000000000000000000000000000000000000000000000000081526004018080602001828103825260058152602001807f6e6f20696400000000000000000000000000000000000000000000000000000081525060200191505060405180910390fd5b6000600360003373ffffffffffffffffffffffffffffffffffffffff1673ffffffffffffffffffffffffffffffffffffffff1681526020019081526020016000209050600060075411156118985760606007546040519080825280602002602001820160405280156117275781602001602082028038833980820191505090505b50905060008090505b600754811115156117ca57826003016000600754815260200190815260200160002060009054906101000a900473ffffffffffffffffffffffffffffffffffffffff16828281518110151561178157fe5b9060200190602002019073ffffffffffffffffffffffffffffffffffffffff16908173ffffffffffffffffffffffffffffffffffffffff16815250508080600101915050611730565b50816000018260010160009054906101000a900460ff16836002015483838054600181600116156101000203166002900480601f01602080910402602001604051908101604052809291908181526020018280546001816001161561010002031660029004801561187c5780601f106118515761010080835404028352916020019161187c565b820191906000526020600020905b81548152906001019060200180831161185f57829003601f168201915b505050505093508260ff16925097509750975097505050611993565b806000018160010160009054906101000a900460ff16826002015460006040519080825280602002602001820160405280156118e35781602001602082028038833980820191505090505b50838054600181600116156101000203166002900480601f0160208091040260200160405190810160405280929190818152602001828054600181600116156101000203166002900480156119795780601f1061194e57610100808354040283529160200191611979565b820191906000526020600020905b81548152906001019060200180831161195c57829003601f168201915b505050505093508260ff1692508090509650965096509650505b505090919293565b6003602052806000526040600020600091509050806000018054600181600116156101000203166002900480601f016020809104026020016040519081016040528092919081815260200182805460018160011615610100020316600290048015611a475780601f10611a1c57610100808354040283529160200191611a47565b820191906000526020600020905b815481529060010190602001808311611a2a57829003601f168201915b5050505050908060010160009054906101000a900460ff16908060010160019054906101000a900473ffffffffffffffffffffffffffffffffffffffff16908060020154905084565b60056020528060005260406000206000915090505481565b60065481565b606080611ab9614138565b600260003373ffffffffffffffffffffffffffffffffffffffff1673ffffffffffffffffffffffffffffffffffffffff16815260200190815260200160002060606040519081016040529081600082018054600181600116156101000203166002900480601f016020809104026020016040519081016040528092919081815260200182805460018160011615610100020316600290048015611b9d5780601f10611b7257610100808354040283529160200191611b9d565b820191906000526020600020905b815481529060010190602001808311611b8057829003601f168201915b505050505081526020016001820160009054906101000a900473ffffffffffffffffffffffffffffffffffffffff1673ffffffffffffffffffffffffffffffffffffffff1673ffffffffffffffffffffffffffffffffffffffff16815260200160028201805480602002602001604051908101604052809291908181526020018280548015611c8157602002820191906000526020600020905b8160009054906101000a900473ffffffffffffffffffffffffffffffffffffffff1673ffffffffffffffffffffffffffffffffffffffff1681526020019060010190808311611c37575b50505050508152505090508060000151816040015181915080905092509250509091565b6060600080600084611cb56140f3565b600360008373ffffffffffffffffffffffffffffffffffffffff1673ffffffffffffffffffffffffffffffffffffffff16815260200190815260200160002060806040519081016040529081600082018054600181600116156101000203166002900480601f016020809104026020016040519081016040528092919081815260200182805460018160011615610100020316600290048015611d995780601f10611d6e57610100808354040283529160200191611d99565b820191906000526020600020905b815481529060010190602001808311611d7c57829003601f168201915b505050505081526020016001820160009054906101000a900460ff1660ff1660ff1681526020016001820160019054906101000a900473ffffffffffffffffffffffffffffffffffffffff1673ffffffffffffffffffffffffffffffffffffffff1673ffffffffffffffffffffffffffffffffffffffff1681526020016002820154815250509050600073ffffffffffffffffffffffffffffffffffffffff16816040015173ffffffffffffffffffffffffffffffffffffffff16111515611ec9576040517f08c379a00000000000000000000000000000000000000000000000000000000081526004018080602001828103825260058152602001807f6e6f20696400000000000000000000000000000000000000000000000000000081525060200191505060405180910390fd5b33611ed2614138565b600260008373ffffffffffffffffffffffffffffffffffffffff1673ffffffffffffffffffffffffffffffffffffffff16815260200190815260200160002060606040519081016040529081600082018054600181600116156101000203166002900480601f016020809104026020016040519081016040528092919081815260200182805460018160011615610100020316600290048015611fb65780601f10611f8b57610100808354040283529160200191611fb6565b820191906000526020600020905b815481529060010190602001808311611f9957829003601f168201915b505050505081526020016001820160009054906101000a900473ffffffffffffffffffffffffffffffffffffffff1673ffffffffffffffffffffffffffffffffffffffff1673ffffffffffffffffffffffffffffffffffffffff1681526020016002820180548060200260200160405190810160405280929190818152602001828054801561209a57602002820191906000526020600020905b8160009054906101000a900473ffffffffffffffffffffffffffffffffffffffff1673ffffffffffffffffffffffffffffffffffffffff1681526020019060010190808311612050575b5050505050815250509050600073ffffffffffffffffffffffffffffffffffffffff16816020015173ffffffffffffffffffffffffffffffffffffffff1611151561214d576040517f08c379a00000000000000000000000000000000000000000000000000000000081526004018080602001828103825260058152602001807f6e6f20696400000000000000000000000000000000000000000000000000000081525060200191505060405180910390fd5b6121556140f3565b600360008b73ffffffffffffffffffffffffffffffffffffffff1673ffffffffffffffffffffffffffffffffffffffff16815260200190815260200160002060806040519081016040529081600082018054600181600116156101000203166002900480601f0160208091040260200160405190810160405280929190818152602001828054600181600116156101000203166002900480156122395780601f1061220e57610100808354040283529160200191612239565b820191906000526020600020905b81548152906001019060200180831161221c57829003601f168201915b505050505081526020016001820160009054906101000a900460ff1660ff1660ff1681526020016001820160019054906101000a900473ffffffffffffffffffffffffffffffffffffffff1673ffffffffffffffffffffffffffffffffffffffff1673ffffffffffffffffffffffffffffffffffffffff168152602001600282015481525050905060018060003373ffffffffffffffffffffffffffffffffffffffff1673ffffffffffffffffffffffffffffffffffffffff16815260200190815260200160002060008c73ffffffffffffffffffffffffffffffffffffffff1673ffffffffffffffffffffffffffffffffffffffff1681526020019081526020016000205411151561234b57600080fd5b80600001518160200151826040015183606001518393508260ff169250985098509850985050505050509193509193565b606080600860009054906101000a900473ffffffffffffffffffffffffffffffffffffffff1673ffffffffffffffffffffffffffffffffffffffff163373ffffffffffffffffffffffffffffffffffffffff161415156123db57600080fd5b836123e46140f3565b600360008373ffffffffffffffffffffffffffffffffffffffff1673ffffffffffffffffffffffffffffffffffffffff16815260200190815260200160002060806040519081016040529081600082018054600181600116156101000203166002900480601f0160208091040260200160405190810160405280929190818152602001828054600181600116156101000203166002900480156124c85780601f1061249d576101008083540402835291602001916124c8565b820191906000526020600020905b8154815290600101906020018083116124ab57829003601f168201915b505050505081526020016001820160009054906101000a900460ff1660ff1660ff1681526020016001820160019054906101000a900473ffffffffffffffffffffffffffffffffffffffff1673ffffffffffffffffffffffffffffffffffffffff1673ffffffffffffffffffffffffffffffffffffffff1681526020016002820154815250509050600073ffffffffffffffffffffffffffffffffffffffff16816040015173ffffffffffffffffffffffffffffffffffffffff161115156125f8576040517f08c379a00000000000000000000000000000000000000000000000000000000081526004018080602001828103825260058152602001807f6e6f20696400000000000000000000000000000000000000000000000000000081525060200191505060405180910390fd5b86612601614138565b600260008373ffffffffffffffffffffffffffffffffffffffff1673ffffffffffffffffffffffffffffffffffffffff16815260200190815260200160002060606040519081016040529081600082018054600181600116156101000203166002900480601f0160208091040260200160405190810160405280929190818152602001828054600181600116156101000203166002900480156126e55780601f106126ba576101008083540402835291602001916126e5565b820191906000526020600020905b8154815290600101906020018083116126c857829003601f168201915b505050505081526020016001820160009054906101000a900473ffffffffffffffffffffffffffffffffffffffff1673ffffffffffffffffffffffffffffffffffffffff1673ffffffffffffffffffffffffffffffffffffffff168152602001600282018054806020026020016040519081016040528092919081815260200182805480156127c957602002820191906000526020600020905b8160009054906101000a900473ffffffffffffffffffffffffffffffffffffffff1673ffffffffffffffffffffffffffffffffffffffff168152602001906001019080831161277f575b5050505050815250509050600073ffffffffffffffffffffffffffffffffffffffff16816020015173ffffffffffffffffffffffffffffffffffffffff1611151561287c576040517f08c379a00000000000000000000000000000000000000000000000000000000081526004018080602001828103825260058152602001807f6e6f20696400000000000000000000000000000000000000000000000000000081525060200191505060405180910390fd5b6040805190810160405280600681526020017f646f63746f72000000000000000000000000000000000000000000000000000081525089888a60405160200180807f646f63746f72000000000000000000000000000000000000000000000000000081525060060190506040516020818303038152906040528051906020012060405160200180807f726f6c65000000000000000000000000000000000000000000000000000000008152506004019050604051602081830303815290604052805190602001201415156129d6576000600460008373ffffffffffffffffffffffffffffffffffffffff1673ffffffffffffffffffffffffffffffffffffffff16815260200190815260200160002060008573ffffffffffffffffffffffffffffffffffffffff1673ffffffffffffffffffffffffffffffffffffffff168152602001908152602001600020541115156129d557600080fd5b5b6129de614170565b6129e78c613ee0565b9050806000015181602001518191508090509a509a50505050505050505050935093915050565b600860009054906101000a900473ffffffffffffffffffffffffffffffffffffffff1681565b33612a3d6140f3565b600360008373ffffffffffffffffffffffffffffffffffffffff1673ffffffffffffffffffffffffffffffffffffffff16815260200190815260200160002060806040519081016040529081600082018054600181600116156101000203166002900480601f016020809104026020016040519081016040528092919081815260200182805460018160011615610100020316600290048015612b215780601f10612af657610100808354040283529160200191612b21565b820191906000526020600020905b815481529060010190602001808311612b0457829003601f168201915b505050505081526020016001820160009054906101000a900460ff1660ff1660ff1681526020016001820160019054906101000a900473ffffffffffffffffffffffffffffffffffffffff1673ffffffffffffffffffffffffffffffffffffffff1673ffffffffffffffffffffffffffffffffffffffff1681526020016002820154815250509050600073ffffffffffffffffffffffffffffffffffffffff16816040015173ffffffffffffffffffffffffffffffffffffffff16111515612c51576040517f08c379a00000000000000000000000000000000000000000000000000000000081526004018080602001828103825260058152602001807f6e6f20696400000000000000000000000000000000000000000000000000000081525060200191505060405180910390fd5b82612c5a614138565b600260008373ffffffffffffffffffffffffffffffffffffffff1673ffffffffffffffffffffffffffffffffffffffff16815260200190815260200160002060606040519081016040529081600082018054600181600116156101000203166002900480601f016020809104026020016040519081016040528092919081815260200182805460018160011615610100020316600290048015612d3e5780601f10612d1357610100808354040283529160200191612d3e565b820191906000526020600020905b815481529060010190602001808311612d2157829003601f168201915b505050505081526020016001820160009054906101000a900473ffffffffffffffffffffffffffffffffffffffff1673ffffffffffffffffffffffffffffffffffffffff1673ffffffffffffffffffffffffffffffffffffffff16815260200160028201805480602002602001604051908101604052809291908181526020018280548015612e2257602002820191906000526020600020905b8160009054906101000a900473ffffffffffffffffffffffffffffffffffffffff1673ffffffffffffffffffffffffffffffffffffffff1681526020019060010190808311612dd8575b5050505050815250509050600073ffffffffffffffffffffffffffffffffffffffff16816020015173ffffffffffffffffffffffffffffffffffffffff16111515612ed5576040517f08c379a00000000000000000000000000000000000000000000000000000000081526004018080602001828103825260058152602001807f6e6f20696400000000000000000000000000000000000000000000000000000081525060200191505060405180910390fd5b6000600360003373ffffffffffffffffffffffffffffffffffffffff1673ffffffffffffffffffffffffffffffffffffffff1681526020019081526020016000209050612f20614138565b600260008873ffffffffffffffffffffffffffffffffffffffff1673ffffffffffffffffffffffffffffffffffffffff16815260200190815260200160002060606040519081016040529081600082018054600181600116156101000203166002900480601f0160208091040260200160405190810160405280929190818152602001828054600181600116156101000203166002900480156130045780601f10612fd957610100808354040283529160200191613004565b820191906000526020600020905b815481529060010190602001808311612fe757829003601f168201915b505050505081526020016001820160009054906101000a900473ffffffffffffffffffffffffffffffffffffffff1673ffffffffffffffffffffffffffffffffffffffff1673ffffffffffffffffffffffffffffffffffffffff168152602001600282018054806020026020016040519081016040528092919081815260200182805480156130e857602002820191906000526020600020905b8160009054906101000a900473ffffffffffffffffffffffffffffffffffffffff1673ffffffffffffffffffffffffffffffffffffffff168152602001906001019080831161309e575b505050505081525050905086826003016000600754815260200190815260200160002060006101000a81548173ffffffffffffffffffffffffffffffffffffffff021916908373ffffffffffffffffffffffffffffffffffffffff160217905550600754600460003373ffffffffffffffffffffffffffffffffffffffff1673ffffffffffffffffffffffffffffffffffffffff16815260200190815260200160002060008973ffffffffffffffffffffffffffffffffffffffff1673ffffffffffffffffffffffffffffffffffffffff168152602001908152602001600020819055503381604001516007548151811015156131e157fe5b9060200190602002019073ffffffffffffffffffffffffffffffffffffffff16908173ffffffffffffffffffffffffffffffffffffffff168152505060016007540160078190555050505050505050565b6004602052816000526040600020602052806000526040600020600091509150505481565b61325f6140f3565b600360003373ffffffffffffffffffffffffffffffffffffffff1673ffffffffffffffffffffffffffffffffffffffff16815260200190815260200160002060806040519081016040529081600082018054600181600116156101000203166002900480601f0160208091040260200160405190810160405280929190818152602001828054600181600116156101000203166002900480156133435780601f1061331857610100808354040283529160200191613343565b820191906000526020600020905b81548152906001019060200180831161332657829003601f168201915b505050505081526020016001820160009054906101000a900460ff1660ff1660ff1681526020016001820160019054906101000a900473ffffffffffffffffffffffffffffffffffffffff1673ffffffffffffffffffffffffffffffffffffffff1673ffffffffffffffffffffffffffffffffffffffff1681526020016002820154815250509050606060405190810160405280868152602001858152602001838152506000808581526020019081526020016000206000820151816000019080519060200190613415929190614192565b506020820151816001019080519060200190613432929190614192565b50604082015181600201908051906020019061344f929190614192565b50905050828160600181815250506001600654016006819055505050505050565b60075481565b816040516020018082805190602001908083835b6020831015156134af578051825260208201915060208101905060208303925061348a565b6001836020036101000a03801982511681845116808217855250505050505090500191505060405160208183030381529060405280519060200120604051602001806000019050604051602081830303815290604052805190602001201415151561351957600080fd5b6135216140f3565b600360003373ffffffffffffffffffffffffffffffffffffffff1673ffffffffffffffffffffffffffffffffffffffff16815260200190815260200160002060806040519081016040529081600082018054600181600116156101000203166002900480601f0160208091040260200160405190810160405280929190818152602001828054600181600116156101000203166002900480156136055780601f106135da57610100808354040283529160200191613605565b820191906000526020600020905b8154815290600101906020018083116135e857829003601f168201915b505050505081526020016001820160009054906101000a900460ff1660ff1660ff1681526020016001820160019054906101000a900473ffffffffffffffffffffffffffffffffffffffff1673ffffffffffffffffffffffffffffffffffffffff1673ffffffffffffffffffffffffffffffffffffffff1681526020016002820154815250509050600073ffffffffffffffffffffffffffffffffffffffff16816040015173ffffffffffffffffffffffffffffffffffffffff1611151515613736576040517f08c379a00000000000000000000000000000000000000000000000000000000081526004018080602001828103825260108152602001807f494420414c52454144592045584953540000000000000000000000000000000081525060200191505060405180910390fd5b6080604051908101604052808481526020018360ff1681526020013373ffffffffffffffffffffffffffffffffffffffff1681526020016000801916815250600360003373ffffffffffffffffffffffffffffffffffffffff1673ffffffffffffffffffffffffffffffffffffffff16815260200190815260200160002060008201518160000190805190602001906137d0929190614192565b5060208201518160010160006101000a81548160ff021916908360ff16021790555060408201518160010160016101000a81548173ffffffffffffffffffffffffffffffffffffffff021916908373ffffffffffffffffffffffffffffffffffffffff16021790555060608201518160020155905050505050565b606080613856614170565b61385f84613ee0565b90508060000151816020015181915080905092509250509250929050565b806040516020018082805190602001908083835b6020831015156138b65780518252602082019150602081019050602083039250613891565b6001836020036101000a03801982511681845116808217855250505050505090500191505060405160208183030381529060405280519060200120604051602001806000019050604051602081830303815290604052805190602001201415151561392057600080fd5b613928614138565b600260003373ffffffffffffffffffffffffffffffffffffffff1673ffffffffffffffffffffffffffffffffffffffff16815260200190815260200160002060606040519081016040529081600082018054600181600116156101000203166002900480601f016020809104026020016040519081016040528092919081815260200182805460018160011615610100020316600290048015613a0c5780601f106139e157610100808354040283529160200191613a0c565b820191906000526020600020905b8154815290600101906020018083116139ef57829003601f168201915b505050505081526020016001820160009054906101000a900473ffffffffffffffffffffffffffffffffffffffff1673ffffffffffffffffffffffffffffffffffffffff1673ffffffffffffffffffffffffffffffffffffffff16815260200160028201805480602002602001604051908101604052809291908181526020018280548015613af057602002820191906000526020600020905b8160009054906101000a900473ffffffffffffffffffffffffffffffffffffffff1673ffffffffffffffffffffffffffffffffffffffff1681526020019060010190808311613aa6575b5050505050815250509050600073ffffffffffffffffffffffffffffffffffffffff16816020015173ffffffffffffffffffffffffffffffffffffffff1611151515613ba4576040517f08c379a00000000000000000000000000000000000000000000000000000000081526004018080602001828103825260108152602001807f494420414c52454144592045584953540000000000000000000000000000000081525060200191505060405180910390fd5b6060604051908101604052808381526020013373ffffffffffffffffffffffffffffffffffffffff1681526020016000604051908082528060200260200182016040528015613c025781602001602082028038833980820191505090505b50815250600260003373ffffffffffffffffffffffffffffffffffffffff1673ffffffffffffffffffffffffffffffffffffffff1681526020019081526020016000206000820151816000019080519060200190613c61929190614192565b5060208201518160010160006101000a81548173ffffffffffffffffffffffffffffffffffffffff021916908373ffffffffffffffffffffffffffffffffffffffff1602179055506040820151816002019080519060200190613cc5929190614212565b509050505050565b60608460606000808381526020019081526020016000206000018054600181600116156101000203166002900480601f016020809104026020016040519081016040528092919081815260200182805460018160011615610100020316600290048015613d7b5780601f10613d5057610100808354040283529160200191613d7b565b820191906000526020600020905b815481529060010190602001808311613d5e57829003601f168201915b5050505050905060008151111515613d9257600080fd5b8585888660405160200180807f646f63746f72000000000000000000000000000000000000000000000000000081525060060190506040516020818303038152906040528051906020012060405160200180807f726f6c6500000000000000000000000000000000000000000000000000000000815250600401905060405160208183030381529060405280519060200120141515613eb7576000600460008373ffffffffffffffffffffffffffffffffffffffff1673ffffffffffffffffffffffffffffffffffffffff16815260200190815260200160002060008573ffffffffffffffffffffffffffffffffffffffff1673ffffffffffffffffffffffffffffffffffffffff16815260200190815260200160002054111515613eb657600080fd5b5b613ebf614170565b613ec88c613ee0565b90508060400151975050505050505050949350505050565b613ee8614170565b60008083815260200190815260200160002060606040519081016040529081600082018054600181600116156101000203166002900480601f016020809104026020016040519081016040528092919081815260200182805460018160011615610100020316600290048015613f9f5780601f10613f7457610100808354040283529160200191613f9f565b820191906000526020600020905b815481529060010190602001808311613f8257829003601f168201915b50505050508152602001600182018054600181600116156101000203166002900480601f0160208091040260200160405190810160405280929190818152602001828054600181600116156101000203166002900480156140415780601f1061401657610100808354040283529160200191614041565b820191906000526020600020905b81548152906001019060200180831161402457829003601f168201915b50505050508152602001600282018054600181600116156101000203166002900480601f0160208091040260200160405190810160405280929190818152602001828054600181600116156101000203166002900480156140e35780601f106140b8576101008083540402835291602001916140e3565b820191906000526020600020905b8154815290600101906020018083116140c657829003601f168201915b5050505050815250509050919050565b60806040519081016040528060608152602001600060ff168152602001600073ffffffffffffffffffffffffffffffffffffffff168152602001600080191681525090565b60606040519081016040528060608152602001600073ffffffffffffffffffffffffffffffffffffffff168152602001606081525090565b6060604051908101604052806060815260200160608152602001606081525090565b828054600181600116156101000203166002900490600052602060002090601f016020900481019282601f106141d357805160ff1916838001178555614201565b82800160010185558215614201579182015b828111156142005782518255916020019190600101906141e5565b5b50905061420e919061429c565b5090565b82805482825590600052602060002090810192821561428b579160200282015b8281111561428a5782518260006101000a81548173ffffffffffffffffffffffffffffffffffffffff021916908373ffffffffffffffffffffffffffffffffffffffff16021790555091602001919060010190614232565b5b50905061429891906142c1565b5090565b6142be91905b808211156142ba5760008160009055506001016142a2565b5090565b90565b61430191905b808211156142fd57600081816101000a81549073ffffffffffffffffffffffffffffffffffffffff0219169055506001016142c7565b5090565b9056fea165627a7a723058203f0471fe707e9b691027a2ce518d6938d57079edb53155fb35b252ef08b5482c0029",
  "source": "pragma solidity >=0.4.21 <0.7.0;\n \n\n import \"./doctor.sol\";\nimport \"./patient.sol\";\nimport \"./file.sol\";\nimport \"./ownable.sol\";\n\ncontract HealthCare is File,Doctor,Patient{\n    address public owner;\n   \n    \n\n    constructor() public {\n        owner= msg.sender;\n    }\n     modifier onlyowner(){\n        require(msg.sender== owner);\n        _;\n    }\n\n    modifier CheckfileAccess(string memory role,address id,bytes32 fileHashId,address pat){\n        // uint256  pos ;\n        \n        if(keccak256(abi.encodePacked(\"role\"))!=keccak256(abi.encodePacked(\"doctor\"))){\n         require(patientToDoctor[pat][id] > 0);\n            //  pos = patienToFile[pat][fileHashId];\n            // require(pos > 0);\n        }\n        // if(keccak256(abi.encodePacked(\"role\"))!=keccak256(abi.encodePacked(\"patient\"))){\n        //        bytes32 pos = patienToFile[id];\n        //         require(pos); \n        // }\n        _;\n    }\n\nfunction checkProfile(address _user) public view returns(string memory, string memory){\n      patient memory p = patients[_user];\n      doctor memory d = doctors[_user];\n      \n      if(p.id == _user)\n          return (p.name, 'patient');\n      else if(d.id == _user)\n          return (d.name, 'doctor');\n      else\n          return ('default', 'default');\n  }\n  \n    \n\n    function addFile(string memory _file_name,string memory _file_type,bytes32  fileHashId,string memory _file_secret) public {\n      \n         patient memory p = patients[msg.sender];\n        // require (patienToFile[msg.sender][fileHashId]<1);//checking already exist \n\n        hashInfo[fileHashId]=filesInfo({file_name:_file_name,file_type:_file_type,file_secret:_file_secret});\n        \n        p.files=fileHashId;\n       \n        // patienToFile[msg.sender][fileHashId]=fileCount;\n        fileCount=fileCount+1;\n\n    }\n\n    function grantAcessToDoctor(address  _docterId) public patientExits(msg.sender) doctorExist(_docterId){\n        patient storage p = patients[msg.sender];\n        doctor memory d = doctors[_docterId];\n\n        // require(patientToDoctor[msg.sender][_docterId]<1);//already hav permission\n    \n        // uint pos= p.doctorList.push(_docterId);\n        p.doctorList[patientCount]=_docterId;\n        patientToDoctor[msg.sender][_docterId]=patientCount;\n        d.patientsList[patientCount]=msg.sender;\n        patientCount=patientCount+1;\n    }\n\n    function getPatientInfoForDocter(address  _pat) public view patientExits(_pat) doctorExist(msg.sender) returns(string memory _name,uint age,address id,bytes32  files ){\n      patient memory p = patients[_pat]; \n      require(doctorToPainent[msg.sender][_pat]>1);\n      return  (p.name,p.age,p.id,p.files);\n    }\n\n\n\n    function getFileInfoDoctor(address    doc, address   pat, bytes32  fileHashId) public view \n    onlyowner  patientExits(pat) doctorExist(doc)  CheckfileAccess(\"doctor\",doc,fileHashId,pat)returns (string memory name, string memory types){\n        filesInfo memory f= getFileInfo(fileHashId);\n        return(f.file_name,f.file_type);\n    }\n\n\n     function getFileInfoPatient(address    pat,  bytes32   fileHashId) public view returns (string memory name, string memory types){\n            filesInfo memory f= getFileInfo(fileHashId);\n        return(f.file_name,f.file_type);\n     }\n\n     function getFileSecret(bytes32  fileHashId,string memory role,address  id,address   pat) public view  fileCheck(fileHashId) CheckfileAccess(role,id,fileHashId,pat) returns (string memory secret) {\n                 filesInfo memory f= getFileInfo(fileHashId);\n                 return(f.file_secret);\n\n\n     }\n\n\n}",
  "sourcePath": "/home/vishnuskrishnan/hacktonMedica/src/contracts/helthcare.sol",
  "compiler": {
    "name": "solc",
    "version": "0.5.0+commit.1d4f565a.Emscripten.clang"
  },
  "schemaVersion": "3.0.2",
  "updatedAt": "2020-06-16T05:13:21.037Z",
  "devdoc": {
    "methods": {}
  },
  "userdoc": {
    "methods": {}
  }
}