{
  "contractName": "HealthCare",
  "abi": [
    {
      "constant": true,
      "inputs": [],
      "name": "patientInfo",
      "outputs": [
        {
          "name": "_name",
          "type": "string"
        },
        {
          "name": "_age",
          "type": "uint256"
        },
        {
          "name": "_files",
          "type": "string[]"
        },
        {
          "name": "_list",
          "type": "address[]"
        }
      ],
      "payable": false,
      "stateMutability": "view",
      "type": "function",
      "signature": "0x01fb529e"
    },
    {
      "constant": true,
      "inputs": [
        {
          "name": "",
          "type": "address"
        }
      ],
      "name": "patients",
      "outputs": [
        {
          "name": "name",
          "type": "string"
        },
        {
          "name": "age",
          "type": "uint8"
        },
        {
          "name": "id",
          "type": "address"
        }
      ],
      "payable": false,
      "stateMutability": "view",
      "type": "function",
      "signature": "0x0869cfbc"
    },
    {
      "constant": true,
      "inputs": [
        {
          "name": "",
          "type": "address"
        },
        {
          "name": "",
          "type": "uint256"
        }
      ],
      "name": "files",
      "outputs": [
        {
          "name": "",
          "type": "string"
        }
      ],
      "payable": false,
      "stateMutability": "view",
      "type": "function",
      "signature": "0x2ba6978e"
    },
    {
      "constant": true,
      "inputs": [],
      "name": "fileCount",
      "outputs": [
        {
          "name": "",
          "type": "uint32"
        }
      ],
      "payable": false,
      "stateMutability": "view",
      "type": "function",
      "signature": "0x43953519"
    },
    {
      "constant": true,
      "inputs": [],
      "name": "doctorInfo",
      "outputs": [
        {
          "name": "_name",
          "type": "string"
        },
        {
          "name": "list",
          "type": "address[]"
        }
      ],
      "payable": false,
      "stateMutability": "view",
      "type": "function",
      "signature": "0x51fd8dfd"
    },
    {
      "constant": true,
      "inputs": [
        {
          "name": "",
          "type": "address"
        },
        {
          "name": "",
          "type": "uint256"
        }
      ],
      "name": "patientsList",
      "outputs": [
        {
          "name": "",
          "type": "address"
        }
      ],
      "payable": false,
      "stateMutability": "view",
      "type": "function",
      "signature": "0x7e1616b4"
    },
    {
      "constant": true,
      "inputs": [
        {
          "name": "",
          "type": "address"
        },
        {
          "name": "",
          "type": "uint256"
        }
      ],
      "name": "doctorList",
      "outputs": [
        {
          "name": "",
          "type": "address"
        }
      ],
      "payable": false,
      "stateMutability": "view",
      "type": "function",
      "signature": "0x84990be6"
    },
    {
      "constant": true,
      "inputs": [],
      "name": "owner",
      "outputs": [
        {
          "name": "",
          "type": "address"
        }
      ],
      "payable": false,
      "stateMutability": "view",
      "type": "function",
      "signature": "0x8da5cb5b"
    },
    {
      "constant": true,
      "inputs": [
        {
          "name": "",
          "type": "address"
        },
        {
          "name": "",
          "type": "address"
        }
      ],
      "name": "patientToDoctor",
      "outputs": [
        {
          "name": "",
          "type": "uint32"
        }
      ],
      "payable": false,
      "stateMutability": "view",
      "type": "function",
      "signature": "0x9bdf364b"
    },
    {
      "constant": true,
      "inputs": [],
      "name": "patientCount",
      "outputs": [
        {
          "name": "",
          "type": "uint32"
        }
      ],
      "payable": false,
      "stateMutability": "view",
      "type": "function",
      "signature": "0xa0303c41"
    },
    {
      "constant": false,
      "inputs": [
        {
          "name": "_name",
          "type": "string"
        },
        {
          "name": "_age",
          "type": "uint8"
        }
      ],
      "name": "patientSignUp",
      "outputs": [],
      "payable": false,
      "stateMutability": "nonpayable",
      "type": "function",
      "signature": "0xab15ab45"
    },
    {
      "constant": false,
      "inputs": [
        {
          "name": "_name",
          "type": "string"
        }
      ],
      "name": "doctorSignUp",
      "outputs": [],
      "payable": false,
      "stateMutability": "nonpayable",
      "type": "function",
      "signature": "0xbdc46500"
    },
    {
      "inputs": [],
      "payable": false,
      "stateMutability": "nonpayable",
      "type": "constructor",
      "signature": "constructor"
    },
    {
      "constant": true,
      "inputs": [
        {
          "name": "_user",
          "type": "address"
        }
      ],
      "name": "checkProfile",
      "outputs": [
        {
          "name": "",
          "type": "string"
        },
        {
          "name": "",
          "type": "string"
        }
      ],
      "payable": false,
      "stateMutability": "view",
      "type": "function",
      "signature": "0x01d99258"
    },
    {
      "constant": false,
      "inputs": [
        {
          "name": "_file_name",
          "type": "string"
        },
        {
          "name": "_file_type",
          "type": "string"
        },
        {
          "name": "fileHashId",
          "type": "string"
        },
        {
          "name": "_file_secret",
          "type": "string"
        }
      ],
      "name": "addFile",
      "outputs": [],
      "payable": false,
      "stateMutability": "nonpayable",
      "type": "function",
      "signature": "0x5f067db0"
    },
    {
      "constant": false,
      "inputs": [
        {
          "name": "_docterId",
          "type": "address"
        }
      ],
      "name": "grantAcessToDoctor",
      "outputs": [],
      "payable": false,
      "stateMutability": "nonpayable",
      "type": "function",
      "signature": "0x9372a6e8"
    },
    {
      "constant": true,
      "inputs": [
        {
          "name": "_pat",
          "type": "address"
        }
      ],
      "name": "getPatientInfoForDocter",
      "outputs": [
        {
          "name": "_name",
          "type": "string"
        },
        {
          "name": "age",
          "type": "uint256"
        },
        {
          "name": "id",
          "type": "address"
        },
        {
          "name": "_files",
          "type": "string[]"
        }
      ],
      "payable": false,
      "stateMutability": "view",
      "type": "function",
      "signature": "0x5d604a23"
    },
    {
      "constant": true,
      "inputs": [
        {
          "name": "doc",
          "type": "address"
        },
        {
          "name": "pat",
          "type": "address"
        },
        {
          "name": "fileHashId",
          "type": "string"
        }
      ],
      "name": "getFileInfoDoctor",
      "outputs": [
        {
          "name": "name",
          "type": "string"
        },
        {
          "name": "types",
          "type": "string"
        }
      ],
      "payable": false,
      "stateMutability": "view",
      "type": "function",
      "signature": "0xbcec7f95"
    },
    {
      "constant": true,
      "inputs": [
        {
          "name": "pat",
          "type": "address"
        },
        {
          "name": "fileHashId",
          "type": "string"
        }
      ],
      "name": "getFileInfoPatient",
      "outputs": [
        {
          "name": "name",
          "type": "string"
        },
        {
          "name": "types",
          "type": "string"
        }
      ],
      "payable": false,
      "stateMutability": "view",
      "type": "function",
      "signature": "0x0e68d450"
    },
    {
      "constant": true,
      "inputs": [
        {
          "name": "fileHashId",
          "type": "string"
        },
        {
          "name": "role",
          "type": "string"
        },
        {
          "name": "id",
          "type": "address"
        },
        {
          "name": "pat",
          "type": "address"
        }
      ],
      "name": "getFileSecret",
      "outputs": [
        {
          "name": "secret",
          "type": "string"
        }
      ],
      "payable": false,
      "stateMutability": "view",
      "type": "function",
      "signature": "0x33fa68de"
    }
  ],
  "bytecode": "0x60806040526001600960006101000a81548163ffffffff021916908363ffffffff1602179055506001600960046101000a81548163ffffffff021916908363ffffffff16021790555034801561005457600080fd5b5033600960086101000a81548173ffffffffffffffffffffffffffffffffffffffff021916908373ffffffffffffffffffffffffffffffffffffffff16021790555061354b806100a56000396000f3fe608060405260043610610107576000357c0100000000000000000000000000000000000000000000000000000000900463ffffffff16806301d992581461010c57806301fb529e1461014a5780630869cfbc146101785780630e68d450146101b75780632ba6978e146101f557806333fa68de14610232578063439535191461026f57806351fd8dfd1461029a5780635d604a23146102c65780635f067db0146103065780637e1616b41461032f57806384990be61461036c5780638da5cb5b146103a95780639372a6e8146103d45780639bdf364b146103fd578063a0303c411461043a578063ab15ab4514610465578063bcec7f951461048e578063bdc46500146104cc575b600080fd5b34801561011857600080fd5b50610133600480360361012e9190810190612c4a565b6104f5565b604051610141929190613206565b60405180910390f35b34801561015657600080fd5b5061015f610928565b60405161016f9493929190613290565b60405180910390f35b34801561018457600080fd5b5061019f600480360361019a9190810190612c4a565b610e04565b6040516101ae939291906132ea565b60405180910390f35b3480156101c357600080fd5b506101de60048036036101d99190810190612d16565b610ef3565b6040516101ec929190613206565b60405180910390f35b34801561020157600080fd5b5061021c60048036036102179190810190612d6a565b610f25565b604051610229919061318b565b60405180910390f35b34801561023e57600080fd5b5061025960048036036102549190810190612de7565b610fed565b60405161026691906131ad565b60405180910390f35b34801561027b57600080fd5b50610284611130565b6040516102919190613368565b60405180910390f35b3480156102a657600080fd5b506102af611146565b6040516102bd9291906131cf565b60405180910390f35b3480156102d257600080fd5b506102ed60048036036102e89190810190612c4a565b61136d565b6040516102fd949392919061323d565b60405180910390f35b34801561031257600080fd5b5061032d60048036036103289190810190612e7a565b6119ce565b005b34801561033b57600080fd5b5061035660048036036103519190810190612d6a565b611dab565b6040516103639190613170565b60405180910390f35b34801561037857600080fd5b50610393600480360361038e9190810190612d6a565b611df8565b6040516103a09190613170565b60405180910390f35b3480156103b557600080fd5b506103be611e45565b6040516103cb9190613170565b60405180910390f35b3480156103e057600080fd5b506103fb60048036036103f69190810190612c4a565b611e6b565b005b34801561040957600080fd5b50610424600480360361041f9190810190612c73565b612061565b6040516104319190613368565b60405180910390f35b34801561044657600080fd5b5061044f612093565b60405161045c9190613368565b60405180910390f35b34801561047157600080fd5b5061048c60048036036104879190810190612f3d565b6120a9565b005b34801561049a57600080fd5b506104b560048036036104b09190810190612caf565b61242d565b6040516104c3929190613206565b60405180910390f35b3480156104d857600080fd5b506104f360048036036104ee9190810190612da6565b612460565b005b606080610500612a06565b600460008573ffffffffffffffffffffffffffffffffffffffff1673ffffffffffffffffffffffffffffffffffffffff16815260200190815260200160002060606040519081016040529081600082018054600181600116156101000203166002900480601f0160208091040260200160405190810160405280929190818152602001828054600181600116156101000203166002900480156105e45780601f106105b9576101008083540402835291602001916105e4565b820191906000526020600020905b8154815290600101906020018083116105c757829003601f168201915b505050505081526020016001820160009054906101000a900460ff1660ff1660ff1681526020016001820160019054906101000a900473ffffffffffffffffffffffffffffffffffffffff1673ffffffffffffffffffffffffffffffffffffffff1673ffffffffffffffffffffffffffffffffffffffff1681525050905061066a612a41565b600260008673ffffffffffffffffffffffffffffffffffffffff1673ffffffffffffffffffffffffffffffffffffffff168152602001908152602001600020604080519081016040529081600082018054600181600116156101000203166002900480601f01602080910402602001604051908101604052809291908181526020018280546001816001161561010002031660029004801561074d5780601f106107225761010080835404028352916020019161074d565b820191906000526020600020905b81548152906001019060200180831161073057829003601f168201915b505050505081526020016001820160009054906101000a900473ffffffffffffffffffffffffffffffffffffffff1673ffffffffffffffffffffffffffffffffffffffff1673ffffffffffffffffffffffffffffffffffffffff168152505090508473ffffffffffffffffffffffffffffffffffffffff16826040015173ffffffffffffffffffffffffffffffffffffffff16141561082f5781600001518090506040805190810160405280600781526020017f70617469656e7400000000000000000000000000000000000000000000000000815250935093505050610923565b8473ffffffffffffffffffffffffffffffffffffffff16816020015173ffffffffffffffffffffffffffffffffffffffff1614156108b05780600001518090506040805190810160405280600681526020017f646f63746f720000000000000000000000000000000000000000000000000000815250935093505050610923565b6040805190810160405280600781526020017f64656661756c74000000000000000000000000000000000000000000000000008152506040805190810160405280600781526020017f64656661756c74000000000000000000000000000000000000000000000000008152509350935050505b915091565b6060600060608033610938612a06565b600460008373ffffffffffffffffffffffffffffffffffffffff1673ffffffffffffffffffffffffffffffffffffffff16815260200190815260200160002060606040519081016040529081600082018054600181600116156101000203166002900480601f016020809104026020016040519081016040528092919081815260200182805460018160011615610100020316600290048015610a1c5780601f106109f157610100808354040283529160200191610a1c565b820191906000526020600020905b8154815290600101906020018083116109ff57829003601f168201915b505050505081526020016001820160009054906101000a900460ff1660ff1660ff1681526020016001820160019054906101000a900473ffffffffffffffffffffffffffffffffffffffff1673ffffffffffffffffffffffffffffffffffffffff1673ffffffffffffffffffffffffffffffffffffffff16815250509050600073ffffffffffffffffffffffffffffffffffffffff16816040015173ffffffffffffffffffffffffffffffffffffffff16111515610b0f576040517f08c379a0000000000000000000000000000000000000000000000000000000008152600401610b0690613348565b60405180910390fd5b6000600460003373ffffffffffffffffffffffffffffffffffffffff1673ffffffffffffffffffffffffffffffffffffffff1681526020019081526020016000209050806000018160010160009054906101000a900460ff16600860003373ffffffffffffffffffffffffffffffffffffffff1673ffffffffffffffffffffffffffffffffffffffff168152602001908152602001600020600760003373ffffffffffffffffffffffffffffffffffffffff1673ffffffffffffffffffffffffffffffffffffffff168152602001908152602001600020838054600181600116156101000203166002900480601f016020809104026020016040519081016040528092919081815260200182805460018160011615610100020316600290048015610c7b5780601f10610c5057610100808354040283529160200191610c7b565b820191906000526020600020905b815481529060010190602001808311610c5e57829003601f168201915b505050505093508260ff16925081805480602002602001604051908101604052809291908181526020016000905b82821015610d65578382906000526020600020018054600181600116156101000203166002900480601f016020809104026020016040519081016040528092919081815260200182805460018160011615610100020316600290048015610d515780601f10610d2657610100808354040283529160200191610d51565b820191906000526020600020905b815481529060010190602001808311610d3457829003601f168201915b505050505081526020019060010190610ca9565b50505050915080805480602002602001604051908101604052809291908181526020018280548015610dec57602002820191906000526020600020905b8160009054906101000a900473ffffffffffffffffffffffffffffffffffffffff1673ffffffffffffffffffffffffffffffffffffffff1681526020019060010190808311610da2575b50505050509050965096509650965050505090919293565b6004602052806000526040600020600091509050806000018054600181600116156101000203166002900480601f016020809104026020016040519081016040528092919081815260200182805460018160011615610100020316600290048015610eb05780601f10610e8557610100808354040283529160200191610eb0565b820191906000526020600020905b815481529060010190602001808311610e9357829003601f168201915b5050505050908060010160009054906101000a900460ff16908060010160019054906101000a900473ffffffffffffffffffffffffffffffffffffffff16905083565b606080610efe612a71565b610f078461279a565b90508060000151816020015181915080905092509250509250929050565b600860205281600052604060002081815481101515610f4057fe5b90600052602060002001600091509150508054600181600116156101000203166002900480601f016020809104026020016040519081016040528092919081815260200182805460018160011615610100020316600290048015610fe55780601f10610fba57610100808354040283529160200191610fe5565b820191906000526020600020905b815481529060010190602001808311610fc857829003601f168201915b505050505081565b60608460606000826040518082805190602001908083835b60208310151561102a5780518252602082019150602081019050602083039250611005565b6001836020036101000a03801982511681845116808217855250505050505090500191505090815260200160405180910390206000018054600181600116156101000203166002900480601f0160208091040260200160405190810160405280929190818152602001828054600181600116156101000203166002900480156110f45780601f106110c9576101008083540402835291602001916110f4565b820191906000526020600020905b8154815290600101906020018083116110d757829003601f168201915b505050505090506000815111151561110b57600080fd5b611113612a71565b61111c8861279a565b905080604001519350505050949350505050565b600960009054906101000a900463ffffffff1681565b606080611151612a41565b600260003373ffffffffffffffffffffffffffffffffffffffff1673ffffffffffffffffffffffffffffffffffffffff168152602001908152602001600020604080519081016040529081600082018054600181600116156101000203166002900480601f0160208091040260200160405190810160405280929190818152602001828054600181600116156101000203166002900480156112345780601f1061120957610100808354040283529160200191611234565b820191906000526020600020905b81548152906001019060200180831161121757829003601f168201915b505050505081526020016001820160009054906101000a900473ffffffffffffffffffffffffffffffffffffffff1673ffffffffffffffffffffffffffffffffffffffff1673ffffffffffffffffffffffffffffffffffffffff168152505090508060000151600360003373ffffffffffffffffffffffffffffffffffffffff1673ffffffffffffffffffffffffffffffffffffffff1681526020019081526020016000208191508080548060200260200160405190810160405280929190818152602001828054801561135d57602002820191906000526020600020905b8160009054906101000a900473ffffffffffffffffffffffffffffffffffffffff1673ffffffffffffffffffffffffffffffffffffffff1681526020019060010190808311611313575b5050505050905092509250509091565b606060008060608461137d612a06565b600460008373ffffffffffffffffffffffffffffffffffffffff1673ffffffffffffffffffffffffffffffffffffffff16815260200190815260200160002060606040519081016040529081600082018054600181600116156101000203166002900480601f0160208091040260200160405190810160405280929190818152602001828054600181600116156101000203166002900480156114615780601f1061143657610100808354040283529160200191611461565b820191906000526020600020905b81548152906001019060200180831161144457829003601f168201915b505050505081526020016001820160009054906101000a900460ff1660ff1660ff1681526020016001820160019054906101000a900473ffffffffffffffffffffffffffffffffffffffff1673ffffffffffffffffffffffffffffffffffffffff1673ffffffffffffffffffffffffffffffffffffffff16815250509050600073ffffffffffffffffffffffffffffffffffffffff16816040015173ffffffffffffffffffffffffffffffffffffffff16111515611554576040517f08c379a000000000000000000000000000000000000000000000000000000000815260040161154b90613348565b60405180910390fd5b3361155d612a41565b600260008373ffffffffffffffffffffffffffffffffffffffff1673ffffffffffffffffffffffffffffffffffffffff168152602001908152602001600020604080519081016040529081600082018054600181600116156101000203166002900480601f0160208091040260200160405190810160405280929190818152602001828054600181600116156101000203166002900480156116405780601f1061161557610100808354040283529160200191611640565b820191906000526020600020905b81548152906001019060200180831161162357829003601f168201915b505050505081526020016001820160009054906101000a900473ffffffffffffffffffffffffffffffffffffffff1673ffffffffffffffffffffffffffffffffffffffff1673ffffffffffffffffffffffffffffffffffffffff16815250509050600073ffffffffffffffffffffffffffffffffffffffff16816020015173ffffffffffffffffffffffffffffffffffffffff16111515611716576040517f08c379a000000000000000000000000000000000000000000000000000000000815260040161170d90613348565b60405180910390fd5b61171e612a06565b600460008b73ffffffffffffffffffffffffffffffffffffffff1673ffffffffffffffffffffffffffffffffffffffff16815260200190815260200160002060606040519081016040529081600082018054600181600116156101000203166002900480601f0160208091040260200160405190810160405280929190818152602001828054600181600116156101000203166002900480156118025780601f106117d757610100808354040283529160200191611802565b820191906000526020600020905b8154815290600101906020018083116117e557829003601f168201915b505050505081526020016001820160009054906101000a900460ff1660ff1660ff1681526020016001820160019054906101000a900473ffffffffffffffffffffffffffffffffffffffff1673ffffffffffffffffffffffffffffffffffffffff1673ffffffffffffffffffffffffffffffffffffffff16815250509050806000015181602001518260400151600860008e73ffffffffffffffffffffffffffffffffffffffff1673ffffffffffffffffffffffffffffffffffffffff1681526020019081526020016000208393508260ff16925080805480602002602001604051908101604052809291908181526020016000905b828210156119b4578382906000526020600020018054600181600116156101000203166002900480601f0160208091040260200160405190810160405280929190818152602001828054600181600116156101000203166002900480156119a05780601f10611975576101008083540402835291602001916119a0565b820191906000526020600020905b81548152906001019060200180831161198357829003601f168201915b5050505050815260200190600101906118f8565b505050509050985098509850985050505050509193509193565b6119d6612a06565b600460003373ffffffffffffffffffffffffffffffffffffffff1673ffffffffffffffffffffffffffffffffffffffff16815260200190815260200160002060606040519081016040529081600082018054600181600116156101000203166002900480601f016020809104026020016040519081016040528092919081815260200182805460018160011615610100020316600290048015611aba5780601f10611a8f57610100808354040283529160200191611aba565b820191906000526020600020905b815481529060010190602001808311611a9d57829003601f168201915b505050505081526020016001820160009054906101000a900460ff1660ff1660ff1681526020016001820160019054906101000a900473ffffffffffffffffffffffffffffffffffffffff1673ffffffffffffffffffffffffffffffffffffffff1673ffffffffffffffffffffffffffffffffffffffff16815250509050606060405190810160405280868152602001858152602001838152506000846040518082805190602001908083835b602083101515611b8c5780518252602082019150602081019050602083039250611b67565b6001836020036101000a03801982511681845116808217855250505050505090500191505090815260200160405180910390206000820151816000019080519060200190611bdb929190612a93565b506020820151816001019080519060200190611bf8929190612a93565b506040820151816002019080519060200190611c15929190612a93565b50905050600860003373ffffffffffffffffffffffffffffffffffffffff1673ffffffffffffffffffffffffffffffffffffffff168152602001908152602001600020839080600181540180825580915050906001820390600052602060002001600090919290919091509080519060200190611c93929190612b13565b5050600960009054906101000a900463ffffffff16600660003373ffffffffffffffffffffffffffffffffffffffff1673ffffffffffffffffffffffffffffffffffffffff168152602001908152602001600020846040518082805190602001908083835b602083101515611d1d5780518252602082019150602081019050602083039250611cf8565b6001836020036101000a038019825116818451168082178552505050505050905001915050908152602001604051809103902060006101000a81548163ffffffff021916908363ffffffff1602179055506001600960009054906101000a900463ffffffff1601600960006101000a81548163ffffffff021916908363ffffffff1602179055505050505050565b600360205281600052604060002081815481101515611dc657fe5b906000526020600020016000915091509054906101000a900473ffffffffffffffffffffffffffffffffffffffff1681565b600760205281600052604060002081815481101515611e1357fe5b906000526020600020016000915091509054906101000a900473ffffffffffffffffffffffffffffffffffffffff1681565b600960089054906101000a900473ffffffffffffffffffffffffffffffffffffffff1681565b600760003373ffffffffffffffffffffffffffffffffffffffff1673ffffffffffffffffffffffffffffffffffffffff1681526020019081526020016000208190806001815401808255809150509060018203906000526020600020016000909192909190916101000a81548173ffffffffffffffffffffffffffffffffffffffff021916908373ffffffffffffffffffffffffffffffffffffffff16021790555050600960049054906101000a900463ffffffff16600560003373ffffffffffffffffffffffffffffffffffffffff1673ffffffffffffffffffffffffffffffffffffffff16815260200190815260200160002060008373ffffffffffffffffffffffffffffffffffffffff1673ffffffffffffffffffffffffffffffffffffffff16815260200190815260200160002060006101000a81548163ffffffff021916908363ffffffff160217905550600360008273ffffffffffffffffffffffffffffffffffffffff1673ffffffffffffffffffffffffffffffffffffffff1681526020019081526020016000203390806001815401808255809150509060018203906000526020600020016000909192909190916101000a81548173ffffffffffffffffffffffffffffffffffffffff021916908373ffffffffffffffffffffffffffffffffffffffff1602179055505050565b60056020528160005260406000206020528060005260406000206000915091509054906101000a900463ffffffff1681565b600960049054906101000a900463ffffffff1681565b816040516020018082805190602001908083835b6020831015156120e257805182526020820191506020810190506020830392506120bd565b6001836020036101000a03801982511681845116808217855250505050505090500191505060405160208183030381529060405280519060200120604051602001806000019050604051602081830303815290604052805190602001201415151561214c57600080fd5b612154612a06565b600460003373ffffffffffffffffffffffffffffffffffffffff1673ffffffffffffffffffffffffffffffffffffffff16815260200190815260200160002060606040519081016040529081600082018054600181600116156101000203166002900480601f0160208091040260200160405190810160405280929190818152602001828054600181600116156101000203166002900480156122385780601f1061220d57610100808354040283529160200191612238565b820191906000526020600020905b81548152906001019060200180831161221b57829003601f168201915b505050505081526020016001820160009054906101000a900460ff1660ff1660ff1681526020016001820160019054906101000a900473ffffffffffffffffffffffffffffffffffffffff1673ffffffffffffffffffffffffffffffffffffffff1673ffffffffffffffffffffffffffffffffffffffff16815250509050600073ffffffffffffffffffffffffffffffffffffffff16816040015173ffffffffffffffffffffffffffffffffffffffff161115151561232c576040517f08c379a000000000000000000000000000000000000000000000000000000000815260040161232390613328565b60405180910390fd5b6060604051908101604052808481526020018360ff1681526020013373ffffffffffffffffffffffffffffffffffffffff16815250600460003373ffffffffffffffffffffffffffffffffffffffff1673ffffffffffffffffffffffffffffffffffffffff16815260200190815260200160002060008201518160000190805190602001906123bc929190612a93565b5060208201518160010160006101000a81548160ff021916908360ff16021790555060408201518160010160016101000a81548173ffffffffffffffffffffffffffffffffffffffff021916908373ffffffffffffffffffffffffffffffffffffffff160217905550905050505050565b606080612438612a71565b6124418461279a565b9050806000015181602001518191508090509250925050935093915050565b806040516020018082805190602001908083835b6020831015156124995780518252602082019150602081019050602083039250612474565b6001836020036101000a03801982511681845116808217855250505050505090500191505060405160208183030381529060405280519060200120604051602001806000019050604051602081830303815290604052805190602001201415151561250357600080fd5b61250b612a41565b600260003373ffffffffffffffffffffffffffffffffffffffff1673ffffffffffffffffffffffffffffffffffffffff168152602001908152602001600020604080519081016040529081600082018054600181600116156101000203166002900480601f0160208091040260200160405190810160405280929190818152602001828054600181600116156101000203166002900480156125ee5780601f106125c3576101008083540402835291602001916125ee565b820191906000526020600020905b8154815290600101906020018083116125d157829003601f168201915b505050505081526020016001820160009054906101000a900473ffffffffffffffffffffffffffffffffffffffff1673ffffffffffffffffffffffffffffffffffffffff1673ffffffffffffffffffffffffffffffffffffffff16815250509050600073ffffffffffffffffffffffffffffffffffffffff16816020015173ffffffffffffffffffffffffffffffffffffffff16111515156126c5576040517f08c379a00000000000000000000000000000000000000000000000000000000081526004016126bc90613328565b60405180910390fd5b60408051908101604052808381526020013373ffffffffffffffffffffffffffffffffffffffff16815250600260003373ffffffffffffffffffffffffffffffffffffffff1673ffffffffffffffffffffffffffffffffffffffff168152602001908152602001600020600082015181600001908051906020019061274b929190612a93565b5060208201518160010160006101000a81548173ffffffffffffffffffffffffffffffffffffffff021916908373ffffffffffffffffffffffffffffffffffffffff1602179055509050505050565b6127a2612a71565b6000826040518082805190602001908083835b6020831015156127da57805182526020820191506020810190506020830392506127b5565b6001836020036101000a038019825116818451168082178552505050505050905001915050908152602001604051809103902060606040519081016040529081600082018054600181600116156101000203166002900480601f0160208091040260200160405190810160405280929190818152602001828054600181600116156101000203166002900480156128b25780601f10612887576101008083540402835291602001916128b2565b820191906000526020600020905b81548152906001019060200180831161289557829003601f168201915b50505050508152602001600182018054600181600116156101000203166002900480601f0160208091040260200160405190810160405280929190818152602001828054600181600116156101000203166002900480156129545780601f1061292957610100808354040283529160200191612954565b820191906000526020600020905b81548152906001019060200180831161293757829003601f168201915b50505050508152602001600282018054600181600116156101000203166002900480601f0160208091040260200160405190810160405280929190818152602001828054600181600116156101000203166002900480156129f65780601f106129cb576101008083540402835291602001916129f6565b820191906000526020600020905b8154815290600101906020018083116129d957829003601f168201915b5050505050815250509050919050565b60606040519081016040528060608152602001600060ff168152602001600073ffffffffffffffffffffffffffffffffffffffff1681525090565b604080519081016040528060608152602001600073ffffffffffffffffffffffffffffffffffffffff1681525090565b6060604051908101604052806060815260200160608152602001606081525090565b828054600181600116156101000203166002900490600052602060002090601f016020900481019282601f10612ad457805160ff1916838001178555612b02565b82800160010185558215612b02579182015b82811115612b01578251825591602001919060010190612ae6565b5b509050612b0f9190612b93565b5090565b828054600181600116156101000203166002900490600052602060002090601f016020900481019282601f10612b5457805160ff1916838001178555612b82565b82800160010185558215612b82579182015b82811115612b81578251825591602001919060010190612b66565b5b509050612b8f9190612b93565b5090565b612bb591905b80821115612bb1576000816000905550600101612b99565b5090565b90565b6000612bc48235613495565b905092915050565b600082601f8301121515612bdf57600080fd5b8135612bf2612bed826133b0565b613383565b91508082526020830160208301858383011115612c0e57600080fd5b612c198382846134be565b50505092915050565b6000612c2e82356134a7565b905092915050565b6000612c4282356134b1565b905092915050565b600060208284031215612c5c57600080fd5b6000612c6a84828501612bb8565b91505092915050565b60008060408385031215612c8657600080fd5b6000612c9485828601612bb8565b9250506020612ca585828601612bb8565b9150509250929050565b600080600060608486031215612cc457600080fd5b6000612cd286828701612bb8565b9350506020612ce386828701612bb8565b925050604084013567ffffffffffffffff811115612d0057600080fd5b612d0c86828701612bcc565b9150509250925092565b60008060408385031215612d2957600080fd5b6000612d3785828601612bb8565b925050602083013567ffffffffffffffff811115612d5457600080fd5b612d6085828601612bcc565b9150509250929050565b60008060408385031215612d7d57600080fd5b6000612d8b85828601612bb8565b9250506020612d9c85828601612c22565b9150509250929050565b600060208284031215612db857600080fd5b600082013567ffffffffffffffff811115612dd257600080fd5b612dde84828501612bcc565b91505092915050565b60008060008060808587031215612dfd57600080fd5b600085013567ffffffffffffffff811115612e1757600080fd5b612e2387828801612bcc565b945050602085013567ffffffffffffffff811115612e4057600080fd5b612e4c87828801612bcc565b9350506040612e5d87828801612bb8565b9250506060612e6e87828801612bb8565b91505092959194509250565b60008060008060808587031215612e9057600080fd5b600085013567ffffffffffffffff811115612eaa57600080fd5b612eb687828801612bcc565b945050602085013567ffffffffffffffff811115612ed357600080fd5b612edf87828801612bcc565b935050604085013567ffffffffffffffff811115612efc57600080fd5b612f0887828801612bcc565b925050606085013567ffffffffffffffff811115612f2557600080fd5b612f3187828801612bcc565b91505092959194509250565b60008060408385031215612f5057600080fd5b600083013567ffffffffffffffff811115612f6a57600080fd5b612f7685828601612bcc565b9250506020612f8785828601612c36565b9150509250929050565b612f9a8161343c565b82525050565b6000612fab826133f6565b808452602084019350612fbd836133dc565b60005b82811015612fef57612fd3868351612f91565b612fdc82613422565b9150602086019550600181019050612fc0565b50849250505092915050565b600061300682613401565b8084526020840193508360208202850161301f856133e9565b60005b8481101561305857838303885261303a83835161309f565b92506130458261342f565b9150602088019750600181019050613022565b508196508694505050505092915050565b600061307482613417565b8084526130888160208601602086016134cd565b61309181613500565b602085010191505092915050565b60006130aa8261340c565b8084526130be8160208601602086016134cd565b6130c781613500565b602085010191505092915050565b6000601082527f494420414c5245414459204558495354000000000000000000000000000000006020830152604082019050919050565b6000600582527f6e6f2069640000000000000000000000000000000000000000000000000000006020830152604082019050919050565b61314c8161346e565b82525050565b61315b81613478565b82525050565b61316a81613488565b82525050565b60006020820190506131856000830184612f91565b92915050565b600060208201905081810360008301526131a5818461309f565b905092915050565b600060208201905081810360008301526131c78184613069565b905092915050565b600060408201905081810360008301526131e98185613069565b905081810360208301526131fd8184612fa0565b90509392505050565b600060408201905081810360008301526132208185613069565b905081810360208301526132348184613069565b90509392505050565b600060808201905081810360008301526132578187613069565b90506132666020830186613143565b6132736040830185612f91565b81810360608301526132858184612ffb565b905095945050505050565b600060808201905081810360008301526132aa8187613069565b90506132b96020830186613143565b81810360408301526132cb8185612ffb565b905081810360608301526132df8184612fa0565b905095945050505050565b60006060820190508181036000830152613304818661309f565b90506133136020830185613161565b6133206040830184612f91565b949350505050565b60006020820190508181036000830152613341816130d5565b9050919050565b600060208201905081810360008301526133618161310c565b9050919050565b600060208201905061337d6000830184613152565b92915050565b6000604051905081810181811067ffffffffffffffff821117156133a657600080fd5b8060405250919050565b600067ffffffffffffffff8211156133c757600080fd5b601f19601f8301169050602081019050919050565b6000602082019050919050565b6000602082019050919050565b600081519050919050565b600081519050919050565b600081519050919050565b600081519050919050565b6000602082019050919050565b6000602082019050919050565b60006134478261344e565b9050919050565b600073ffffffffffffffffffffffffffffffffffffffff82169050919050565b6000819050919050565b600063ffffffff82169050919050565b600060ff82169050919050565b60006134a08261344e565b9050919050565b6000819050919050565b600060ff82169050919050565b82818337600083830152505050565b60005b838110156134eb5780820151818401526020810190506134d0565b838111156134fa576000848401525b50505050565b6000601f19601f830116905091905056fea265627a7a7230582031569d39906546b367f5b92679fa6f7e74c49d1dced3114cd65d7eb00b3b7d0c6c6578706572696d656e74616cf50037",
  "source": "pragma solidity >=0.4.21 <0.7.0;\npragma experimental ABIEncoderV2;\n \n\n import \"./doctor.sol\";\nimport \"./patient.sol\";\nimport \"./file.sol\";\nimport \"./ownable.sol\";\n\ncontract HealthCare is File,Doctor,Patient{\n    address public owner;\n   \n    \n\n    constructor() public {\n        owner= msg.sender;\n    }\n     modifier onlyowner(){\n        require(msg.sender== owner);\n        _;\n    }\n\n    modifier CheckfileAccess(string memory role,address id,string memory fileHashId,address pat){\n        // uint256  pos ;\n        \n        if(keccak256(abi.encodePacked(role))!=keccak256(abi.encodePacked(\"doctor\"))){\n         require(patientToDoctor[pat][id] > 0);\n           uint32 pos = patienToFile[pat][fileHashId];\n            require(pos > 0);\n        }\n        if(keccak256(abi.encodePacked(role))!=keccak256(abi.encodePacked(\"patient\"))){\n               uint32 pos = patienToFile[id][fileHashId];\n                require(pos>0); \n        }\n        _;\n    }\n\nfunction checkProfile(address _user) public view returns(string memory, string memory){\n      patient memory p = patients[_user];\n      doctor memory d = doctors[_user];\n      \n      if(p.id == _user)\n          return (p.name, 'patient');\n      else if(d.id == _user)\n          return (d.name, 'doctor');\n      else\n          return ('default', 'default');\n  }\n  \n    \n\n    function addFile(string memory _file_name,string memory _file_type,string memory fileHashId,string memory _file_secret) public {\n      \n         patient memory p = patients[msg.sender];\n        // require (patienToFile[msg.sender][fileHashId]<1);//checking already exist \n\n        hashInfo[fileHashId]=filesInfo({file_name:_file_name,file_type:_file_type,file_secret:_file_secret});\n        \n        files[msg.sender].push(fileHashId);\n       \n        patienToFile[msg.sender][fileHashId]=fileCount;\n        fileCount=fileCount+1;\n\n    }   \n\n    function grantAcessToDoctor(address  _docterId) public {\n        // patient storage p = patients[msg.sender];\n        // doctor memory d = doctors[_docterId];\n\n        // require(patientToDoctor[msg.sender][_docterId]<1);//already hav permission\n    \n        // uint pos= p.doctorList.push(_docterId);\n        doctorList[msg.sender].push(_docterId);\n        patientToDoctor[msg.sender][_docterId]=patientCount;\n        patientsList[_docterId].push(msg.sender);\n    \n    }\n\n    function getPatientInfoForDocter(address  _pat) public view patientExits(_pat) doctorExist(msg.sender) returns(string memory _name,uint age,address id,string[] memory _files ){\n      patient memory p = patients[_pat]; \n    //   require(doctorToPainent[msg.sender][_pat]>1);\n        return  (p.name,p.age,p.id,files[_pat]);\n    }\n\n\n\n    function getFileInfoDoctor(address    doc, address   pat, string memory fileHashId) public view returns (string memory name, string memory types){\n        filesInfo memory f= getFileInfo(fileHashId);\n        return(f.file_name,f.file_type);\n    }\n\n\n     function getFileInfoPatient(address    pat,  string  memory  fileHashId) public view returns (string memory name, string memory types){\n            filesInfo memory f= getFileInfo(fileHashId);\n        return(f.file_name,f.file_type);\n     }\n\n     function getFileSecret(string memory fileHashId,string memory role,address  id,address   pat) public view  fileCheck(fileHashId)  returns (string memory secret) {\n                 filesInfo memory f= getFileInfo(fileHashId);\n                 return(f.file_secret);\n\n\n     }\n\n\n}",
  "sourcePath": "/home/vishnuskrishnan/hacktonMedica/src/contracts/helthcare.sol",
  "compiler": {
    "name": "solc",
    "version": "0.5.0+commit.1d4f565a.Emscripten.clang"
  },
  "schemaVersion": "3.0.2",
  "updatedAt": "2020-06-21T15:41:24.126Z",
  "devdoc": {
    "methods": {}
  },
  "userdoc": {
    "methods": {}
  }
}