{
  "contractName": "Ownable",
  "abi": [
    {
      "inputs": [],
      "payable": false,
      "stateMutability": "nonpayable",
      "type": "constructor"
    },
    {
      "anonymous": false,
      "inputs": [
        {
          "indexed": true,
          "name": "previousOwner",
          "type": "address"
        }
      ],
      "name": "ownerShipRenounced",
      "type": "event"
    },
    {
      "anonymous": false,
      "inputs": [
        {
          "indexed": true,
          "name": "previousOwner",
          "type": "address"
        },
        {
          "indexed": true,
          "name": "newOwner",
          "type": "address"
        }
      ],
      "name": "ownershipTransfers",
      "type": "event"
    },
    {
      "constant": false,
      "inputs": [],
      "name": "ownershipRenounced",
      "outputs": [],
      "payable": false,
      "stateMutability": "nonpayable",
      "type": "function"
    },
    {
      "constant": false,
      "inputs": [
        {
          "name": "_newowner",
          "type": "address"
        }
      ],
      "name": "ownershipTransfer",
      "outputs": [],
      "payable": false,
      "stateMutability": "nonpayable",
      "type": "function"
    }
  ],
  "bytecode": "0x608060405234801561001057600080fd5b50336000806101000a81548173ffffffffffffffffffffffffffffffffffffffff021916908373ffffffffffffffffffffffffffffffffffffffff1602179055506102e3806100606000396000f3fe60806040526004361061004c576000357c0100000000000000000000000000000000000000000000000000000000900463ffffffff1680639004a8bb14610051578063d3a417a214610068575b600080fd5b34801561005d57600080fd5b506100666100b9565b005b34801561007457600080fd5b506100b76004803603602081101561008b57600080fd5b81019080803573ffffffffffffffffffffffffffffffffffffffff1690602001909291905050506100fc565b005b60008060006101000a81548173ffffffffffffffffffffffffffffffffffffffff021916908373ffffffffffffffffffffffffffffffffffffffff160217905550565b6000809054906101000a900473ffffffffffffffffffffffffffffffffffffffff1673ffffffffffffffffffffffffffffffffffffffff163373ffffffffffffffffffffffffffffffffffffffff1614151561015757600080fd5b610160816101bd565b8073ffffffffffffffffffffffffffffffffffffffff163373ffffffffffffffffffffffffffffffffffffffff167fbde3347a6b5291d5dabe7c2a2bf98ace973fc990a4a77017ae1651fa15e0bb3160405160405180910390a350565b600073ffffffffffffffffffffffffffffffffffffffff168173ffffffffffffffffffffffffffffffffffffffff16141515156101f957600080fd5b8073ffffffffffffffffffffffffffffffffffffffff166000809054906101000a900473ffffffffffffffffffffffffffffffffffffffff1673ffffffffffffffffffffffffffffffffffffffff167fbde3347a6b5291d5dabe7c2a2bf98ace973fc990a4a77017ae1651fa15e0bb3160405160405180910390a3806000806101000a81548173ffffffffffffffffffffffffffffffffffffffff021916908373ffffffffffffffffffffffffffffffffffffffff1602179055505056fea165627a7a7230582063abe0d71a0e65d1754eb4d82e2b4a7f58dea987e94634bcf1d7d051b547fb490029",
  "source": "pragma solidity >=0.4.21 <0.7.0;\n\ncontract Ownable{\n    address owner;\n\n    event ownerShipRenounced(address indexed previousOwner) ;\n    event ownershipTransfers(address indexed  previousOwner,address indexed newOwner);\n\n    constructor() public{\n        owner = msg.sender;\n    }\n    modifier onlyowner(){\n        require(msg.sender== owner);\n        _;\n    }\n\n    function ownershipRenounced() public{\n        owner=address(0);\n       \n\n    }\n\n    function ownershipTransfer(address  _newowner) public onlyowner{\n        _transferOwnership( _newowner);\n        emit ownershipTransfers(msg.sender,_newowner);\n    }\n\n    function _transferOwnership(address _newowner) internal{\n           require(_newowner != address(0));\n    emit ownershipTransfers(owner, _newowner);\n        owner=_newowner;\n\n    }\n\n}",
  "sourcePath": "/home/vishnuskrishnan/hacktonMedica/src/contracts/ownable.sol",
  "compiler": {
    "name": "solc",
    "version": "0.5.0+commit.1d4f565a.Emscripten.clang"
  },
  "schemaVersion": "3.0.2",
  "updatedAt": "2020-06-09T16:57:56.607Z",
  "devdoc": {
    "methods": {}
  },
  "userdoc": {
    "methods": {}
  }
}