{
  "contractName": "Patient",
  "abi": [
    {
      "constant": true,
      "inputs": [
        {
          "name": "",
          "type": "address"
        }
      ],
      "name": "patients",
      "outputs": [
        {
          "name": "name",
          "type": "string"
        },
        {
          "name": "age",
          "type": "uint8"
        },
        {
          "name": "id",
          "type": "address"
        },
        {
          "name": "files",
          "type": "bytes32"
        }
      ],
      "payable": false,
      "stateMutability": "view",
      "type": "function"
    },
    {
      "constant": true,
      "inputs": [
        {
          "name": "",
          "type": "address"
        }
      ],
      "name": "patienToFile",
      "outputs": [
        {
          "name": "",
          "type": "bytes32"
        }
      ],
      "payable": false,
      "stateMutability": "view",
      "type": "function"
    },
    {
      "constant": true,
      "inputs": [],
      "name": "fileCount",
      "outputs": [
        {
          "name": "",
          "type": "uint256"
        }
      ],
      "payable": false,
      "stateMutability": "view",
      "type": "function"
    },
    {
      "constant": true,
      "inputs": [
        {
          "name": "",
          "type": "address"
        },
        {
          "name": "",
          "type": "address"
        }
      ],
      "name": "patientToDoctor",
      "outputs": [
        {
          "name": "",
          "type": "uint256"
        }
      ],
      "payable": false,
      "stateMutability": "view",
      "type": "function"
    },
    {
      "constant": true,
      "inputs": [],
      "name": "patientCount",
      "outputs": [
        {
          "name": "",
          "type": "uint256"
        }
      ],
      "payable": false,
      "stateMutability": "view",
      "type": "function"
    },
    {
      "constant": false,
      "inputs": [
        {
          "name": "_name",
          "type": "string"
        },
        {
          "name": "_age",
          "type": "uint8"
        }
      ],
      "name": "patientSignUp",
      "outputs": [],
      "payable": false,
      "stateMutability": "nonpayable",
      "type": "function"
    },
    {
      "constant": true,
      "inputs": [],
      "name": "patientInfo",
      "outputs": [
        {
          "name": "_name",
          "type": "string"
        },
        {
          "name": "_age",
          "type": "uint256"
        },
        {
          "name": "_files",
          "type": "bytes32"
        },
        {
          "name": "_list",
          "type": "address[]"
        }
      ],
      "payable": false,
      "stateMutability": "view",
      "type": "function"
    }
  ],
  "bytecode": "0x60806040526000600355600060045534801561001a57600080fd5b50610fd28061002a6000396000f3fe608060405260043610610083576000357c0100000000000000000000000000000000000000000000000000000000900463ffffffff16806301fb529e146100885780630869cfbc1461016e5780632090b62d1461027f57806343953519146102e45780639bdf364b1461030f578063a0303c4114610394578063ab15ab45146103bf575b600080fd5b34801561009457600080fd5b5061009d610494565b604051808060200185815260200184815260200180602001838103835287818151815260200191508051906020019080838360005b838110156100ed5780820151818401526020810190506100d2565b50505050905090810190601f16801561011a5780820380516001836020036101000a031916815260200191505b50838103825284818151815260200191508051906020019060200280838360005b8381101561015657808201518184015260208101905061013b565b50505050905001965050505050505060405180910390f35b34801561017a57600080fd5b506101bd6004803603602081101561019157600080fd5b81019080803573ffffffffffffffffffffffffffffffffffffffff1690602001909291905050506109ab565b60405180806020018560ff1660ff1681526020018473ffffffffffffffffffffffffffffffffffffffff1673ffffffffffffffffffffffffffffffffffffffff168152602001838152602001828103825286818151815260200191508051906020019080838360005b83811015610241578082015181840152602081019050610226565b50505050905090810190601f16801561026e5780820380516001836020036101000a031916815260200191505b509550505050505060405180910390f35b34801561028b57600080fd5b506102ce600480360360208110156102a257600080fd5b81019080803573ffffffffffffffffffffffffffffffffffffffff169060200190929190505050610aa0565b6040518082815260200191505060405180910390f35b3480156102f057600080fd5b506102f9610ab8565b6040518082815260200191505060405180910390f35b34801561031b57600080fd5b5061037e6004803603604081101561033257600080fd5b81019080803573ffffffffffffffffffffffffffffffffffffffff169060200190929190803573ffffffffffffffffffffffffffffffffffffffff169060200190929190505050610abe565b6040518082815260200191505060405180910390f35b3480156103a057600080fd5b506103a9610ae3565b6040518082815260200191505060405180910390f35b3480156103cb57600080fd5b50610492600480360360408110156103e257600080fd5b81019080803590602001906401000000008111156103ff57600080fd5b82018360208201111561041157600080fd5b8035906020019184600183028401116401000000008311171561043357600080fd5b91908080601f016020809104026020016040519081016040528093929190818152602001838380828437600081840152601f19601f820116905080830192505050505050509192919290803560ff169060200190929190505050610ae9565b005b60606000806060336104a4610ebc565b6000808373ffffffffffffffffffffffffffffffffffffffff1673ffffffffffffffffffffffffffffffffffffffff16815260200190815260200160002060806040519081016040529081600082018054600181600116156101000203166002900480601f0160208091040260200160405190810160405280929190818152602001828054600181600116156101000203166002900480156105875780601f1061055c57610100808354040283529160200191610587565b820191906000526020600020905b81548152906001019060200180831161056a57829003601f168201915b505050505081526020016001820160009054906101000a900460ff1660ff1660ff1681526020016001820160019054906101000a900473ffffffffffffffffffffffffffffffffffffffff1673ffffffffffffffffffffffffffffffffffffffff1673ffffffffffffffffffffffffffffffffffffffff1681526020016002820154815250509050600073ffffffffffffffffffffffffffffffffffffffff16816040015173ffffffffffffffffffffffffffffffffffffffff161115156106b7576040517f08c379a00000000000000000000000000000000000000000000000000000000081526004018080602001828103825260058152602001807f6e6f20696400000000000000000000000000000000000000000000000000000081525060200191505060405180910390fd5b60008060003373ffffffffffffffffffffffffffffffffffffffff1673ffffffffffffffffffffffffffffffffffffffff1681526020019081526020016000209050600060045411156108a85760606004546040519080825280602002602001820160405280156107375781602001602082028038833980820191505090505b50905060008090505b600454811115156107da57826003016000600454815260200190815260200160002060009054906101000a900473ffffffffffffffffffffffffffffffffffffffff16828281518110151561079157fe5b9060200190602002019073ffffffffffffffffffffffffffffffffffffffff16908173ffffffffffffffffffffffffffffffffffffffff16815250508080600101915050610740565b50816000018260010160009054906101000a900460ff16836002015483838054600181600116156101000203166002900480601f01602080910402602001604051908101604052809291908181526020018280546001816001161561010002031660029004801561088c5780601f106108615761010080835404028352916020019161088c565b820191906000526020600020905b81548152906001019060200180831161086f57829003601f168201915b505050505093508260ff169250975097509750975050506109a3565b806000018160010160009054906101000a900460ff16826002015460006040519080825280602002602001820160405280156108f35781602001602082028038833980820191505090505b50838054600181600116156101000203166002900480601f0160208091040260200160405190810160405280929190818152602001828054600181600116156101000203166002900480156109895780601f1061095e57610100808354040283529160200191610989565b820191906000526020600020905b81548152906001019060200180831161096c57829003601f168201915b505050505093508260ff1692508090509650965096509650505b505090919293565b6000602052806000526040600020600091509050806000018054600181600116156101000203166002900480601f016020809104026020016040519081016040528092919081815260200182805460018160011615610100020316600290048015610a575780601f10610a2c57610100808354040283529160200191610a57565b820191906000526020600020905b815481529060010190602001808311610a3a57829003601f168201915b5050505050908060010160009054906101000a900460ff16908060010160019054906101000a900473ffffffffffffffffffffffffffffffffffffffff16908060020154905084565b60026020528060005260406000206000915090505481565b60035481565b6001602052816000526040600020602052806000526040600020600091509150505481565b60045481565b816040516020018082805190602001908083835b602083101515610b225780518252602082019150602081019050602083039250610afd565b6001836020036101000a038019825116818451168082178552505050505050905001915050604051602081830303815290604052805190602001206040516020018060000190506040516020818303038152906040528051906020012014151515610b8c57600080fd5b610b94610ebc565b6000803373ffffffffffffffffffffffffffffffffffffffff1673ffffffffffffffffffffffffffffffffffffffff16815260200190815260200160002060806040519081016040529081600082018054600181600116156101000203166002900480601f016020809104026020016040519081016040528092919081815260200182805460018160011615610100020316600290048015610c775780601f10610c4c57610100808354040283529160200191610c77565b820191906000526020600020905b815481529060010190602001808311610c5a57829003601f168201915b505050505081526020016001820160009054906101000a900460ff1660ff1660ff1681526020016001820160019054906101000a900473ffffffffffffffffffffffffffffffffffffffff1673ffffffffffffffffffffffffffffffffffffffff1673ffffffffffffffffffffffffffffffffffffffff1681526020016002820154815250509050600073ffffffffffffffffffffffffffffffffffffffff16816040015173ffffffffffffffffffffffffffffffffffffffff1611151515610da8576040517f08c379a00000000000000000000000000000000000000000000000000000000081526004018080602001828103825260108152602001807f494420414c52454144592045584953540000000000000000000000000000000081525060200191505060405180910390fd5b6080604051908101604052808481526020018360ff1681526020013373ffffffffffffffffffffffffffffffffffffffff16815260200160008019168152506000803373ffffffffffffffffffffffffffffffffffffffff1673ffffffffffffffffffffffffffffffffffffffff1681526020019081526020016000206000820151816000019080519060200190610e41929190610f01565b5060208201518160010160006101000a81548160ff021916908360ff16021790555060408201518160010160016101000a81548173ffffffffffffffffffffffffffffffffffffffff021916908373ffffffffffffffffffffffffffffffffffffffff16021790555060608201518160020155905050505050565b60806040519081016040528060608152602001600060ff168152602001600073ffffffffffffffffffffffffffffffffffffffff168152602001600080191681525090565b828054600181600116156101000203166002900490600052602060002090601f016020900481019282601f10610f4257805160ff1916838001178555610f70565b82800160010185558215610f70579182015b82811115610f6f578251825591602001919060010190610f54565b5b509050610f7d9190610f81565b5090565b610fa391905b80821115610f9f576000816000905550600101610f87565b5090565b9056fea165627a7a72305820ca4b26bf02b20fecd264fa4f39bee5f1b875aa9c63bcfecc96cc1dc3e70847090029",
  "source": "pragma solidity >=0.4.21 <0.7.0;\n\ncontract Patient{\n    mapping(address => patient) public patients;\n    mapping(address=> mapping(address=>uint)) public patientToDoctor;\n     mapping(address=> bytes32) public patienToFile;\n    uint256 public fileCount=0;\n     uint256 public patientCount=0;\n\n\n    struct patient{\n           string name;\n        uint8 age;\n        address id;\n        bytes32 files;\n        \n        \n        mapping(uint => address) doctorList;\n    }\n    modifier patientExits(address  _id){\n         \n    patient memory d= patients[_id];\n    require(d.id > address(0),\"no id\");\n    _;\n    }\n\n    function patientSignUp(string memory _name,uint8  _age) public{\n        require(keccak256(abi.encodePacked(\"\"))!=keccak256(abi.encodePacked(_name)));\n        patient memory p= patients[msg.sender];\n            require(!(p.id > address(0)),\"ID ALREADY EXIST\");\n            patients[msg.sender]=patient({name:_name,age:_age,id:msg.sender,files:''});\n\n    }\n\n        \n    function patientInfo() public view patientExits(msg.sender) returns(string memory _name,uint  _age,bytes32  _files,address[] memory  _list){\n        patient storage d= patients[msg.sender];\n\n        if(patientCount>0){\n\n         address[] memory ret = new address[](patientCount);\n         for (uint i = 0; i <= patientCount; i++) {\n        ret[i] = d.doctorList[patientCount];\n        }\n\n        return(d.name,d.age,d.files,ret);\n        }\n        else{\n            return(d.name,d.age,d.files,new address[](0));\n        }\n    }\n\n}",
  "sourcePath": "/home/vishnuskrishnan/hacktonMedica/src/contracts/patient.sol",
  "compiler": {
    "name": "solc",
    "version": "0.5.0+commit.1d4f565a.Emscripten.clang"
  },
  "schemaVersion": "3.0.2",
  "updatedAt": "2020-06-16T05:13:19.746Z",
  "devdoc": {
    "methods": {}
  },
  "userdoc": {
    "methods": {}
  }
}