{
  "contractName": "Patient",
  "abi": [
    {
      "constant": true,
      "inputs": [
        {
          "name": "",
          "type": "address"
        }
      ],
      "name": "patients",
      "outputs": [
        {
          "name": "name",
          "type": "string"
        },
        {
          "name": "age",
          "type": "uint8"
        },
        {
          "name": "id",
          "type": "address"
        },
        {
          "name": "files",
          "type": "bytes32"
        }
      ],
      "payable": false,
      "stateMutability": "view",
      "type": "function"
    },
    {
      "constant": true,
      "inputs": [
        {
          "name": "",
          "type": "address"
        }
      ],
      "name": "patienToFile",
      "outputs": [
        {
          "name": "",
          "type": "bytes32"
        }
      ],
      "payable": false,
      "stateMutability": "view",
      "type": "function"
    },
    {
      "constant": true,
      "inputs": [],
      "name": "fileCount",
      "outputs": [
        {
          "name": "",
          "type": "uint32"
        }
      ],
      "payable": false,
      "stateMutability": "view",
      "type": "function"
    },
    {
      "constant": true,
      "inputs": [
        {
          "name": "",
          "type": "address"
        },
        {
          "name": "",
          "type": "uint32"
        }
      ],
      "name": "doctorList",
      "outputs": [
        {
          "name": "",
          "type": "address"
        }
      ],
      "payable": false,
      "stateMutability": "view",
      "type": "function"
    },
    {
      "constant": true,
      "inputs": [
        {
          "name": "",
          "type": "address"
        },
        {
          "name": "",
          "type": "address"
        }
      ],
      "name": "patientToDoctor",
      "outputs": [
        {
          "name": "",
          "type": "uint256"
        }
      ],
      "payable": false,
      "stateMutability": "view",
      "type": "function"
    },
    {
      "constant": true,
      "inputs": [],
      "name": "patientCount",
      "outputs": [
        {
          "name": "",
          "type": "uint32"
        }
      ],
      "payable": false,
      "stateMutability": "view",
      "type": "function"
    },
    {
      "constant": false,
      "inputs": [
        {
          "name": "_name",
          "type": "string"
        },
        {
          "name": "_age",
          "type": "uint8"
        }
      ],
      "name": "patientSignUp",
      "outputs": [],
      "payable": false,
      "stateMutability": "nonpayable",
      "type": "function"
    },
    {
      "constant": true,
      "inputs": [],
      "name": "patientInfo",
      "outputs": [
        {
          "name": "_name",
          "type": "string"
        },
        {
          "name": "_age",
          "type": "uint256"
        },
        {
          "name": "_files",
          "type": "bytes32"
        },
        {
          "name": "_list",
          "type": "address[]"
        }
      ],
      "payable": false,
      "stateMutability": "view",
      "type": "function"
    }
  ],
  "bytecode": "0x60806040526001600460006101000a81548163ffffffff021916908363ffffffff16021790555060016004806101000a81548163ffffffff021916908363ffffffff16021790555034801561005357600080fd5b50611187806100636000396000f3fe60806040526004361061008e576000357c0100000000000000000000000000000000000000000000000000000000900463ffffffff16806301fb529e146100935780630869cfbc146101795780632090b62d1461028a57806343953519146102ef5780636c53eb45146103265780639bdf364b146103c7578063a0303c411461044c578063ab15ab4514610483575b600080fd5b34801561009f57600080fd5b506100a8610558565b604051808060200185815260200184815260200180602001838103835287818151815260200191508051906020019080838360005b838110156100f85780820151818401526020810190506100dd565b50505050905090810190601f1680156101255780820380516001836020036101000a031916815260200191505b50838103825284818151815260200191508051906020019060200280838360005b83811015610161578082015181840152602081019050610146565b50505050905001965050505050505060405180910390f35b34801561018557600080fd5b506101c86004803603602081101561019c57600080fd5b81019080803573ffffffffffffffffffffffffffffffffffffffff169060200190929190505050610aff565b60405180806020018560ff1660ff1681526020018473ffffffffffffffffffffffffffffffffffffffff1673ffffffffffffffffffffffffffffffffffffffff168152602001838152602001828103825286818151815260200191508051906020019080838360005b8381101561024c578082015181840152602081019050610231565b50505050905090810190601f1680156102795780820380516001836020036101000a031916815260200191505b509550505050505060405180910390f35b34801561029657600080fd5b506102d9600480360360208110156102ad57600080fd5b81019080803573ffffffffffffffffffffffffffffffffffffffff169060200190929190505050610bf4565b6040518082815260200191505060405180910390f35b3480156102fb57600080fd5b50610304610c0c565b604051808263ffffffff1663ffffffff16815260200191505060405180910390f35b34801561033257600080fd5b506103856004803603604081101561034957600080fd5b81019080803573ffffffffffffffffffffffffffffffffffffffff169060200190929190803563ffffffff169060200190929190505050610c22565b604051808273ffffffffffffffffffffffffffffffffffffffff1673ffffffffffffffffffffffffffffffffffffffff16815260200191505060405180910390f35b3480156103d357600080fd5b50610436600480360360408110156103ea57600080fd5b81019080803573ffffffffffffffffffffffffffffffffffffffff169060200190929190803573ffffffffffffffffffffffffffffffffffffffff169060200190929190505050610c64565b6040518082815260200191505060405180910390f35b34801561045857600080fd5b50610461610c89565b604051808263ffffffff1663ffffffff16815260200191505060405180910390f35b34801561048f57600080fd5b50610556600480360360408110156104a657600080fd5b81019080803590602001906401000000008111156104c357600080fd5b8201836020820111156104d557600080fd5b803590602001918460018302840111640100000000831117156104f757600080fd5b91908080601f016020809104026020016040519081016040528093929190818152602001838380828437600081840152601f19601f820116905080830192505050505050509192919290803560ff169060200190929190505050610c9e565b005b6060600080606033610568611071565b6000808373ffffffffffffffffffffffffffffffffffffffff1673ffffffffffffffffffffffffffffffffffffffff16815260200190815260200160002060806040519081016040529081600082018054600181600116156101000203166002900480601f01602080910402602001604051908101604052809291908181526020018280546001816001161561010002031660029004801561064b5780601f106106205761010080835404028352916020019161064b565b820191906000526020600020905b81548152906001019060200180831161062e57829003601f168201915b505050505081526020016001820160009054906101000a900460ff1660ff1660ff1681526020016001820160019054906101000a900473ffffffffffffffffffffffffffffffffffffffff1673ffffffffffffffffffffffffffffffffffffffff1673ffffffffffffffffffffffffffffffffffffffff1681526020016002820154815250509050600073ffffffffffffffffffffffffffffffffffffffff16816040015173ffffffffffffffffffffffffffffffffffffffff1611151561077b576040517f08c379a00000000000000000000000000000000000000000000000000000000081526004018080602001828103825260058152602001807f6e6f20696400000000000000000000000000000000000000000000000000000081525060200191505060405180910390fd5b60008060003373ffffffffffffffffffffffffffffffffffffffff1673ffffffffffffffffffffffffffffffffffffffff168152602001908152602001600020905060016004809054906101000a900463ffffffff1663ffffffff1611156109fc5760606004809054906101000a900463ffffffff1663ffffffff166040519080825280602002602001820160405280156108255781602001602082028038833980820191505090505b50905060008090505b6004809054906101000a900463ffffffff1663ffffffff168163ffffffff1611151561092e57600360003373ffffffffffffffffffffffffffffffffffffffff1673ffffffffffffffffffffffffffffffffffffffff16815260200190815260200160002060008263ffffffff1663ffffffff16815260200190815260200160002060009054906101000a900473ffffffffffffffffffffffffffffffffffffffff16828263ffffffff168151811015156108e557fe5b9060200190602002019073ffffffffffffffffffffffffffffffffffffffff16908173ffffffffffffffffffffffffffffffffffffffff1681525050808060010191505061082e565b50816000018260010160009054906101000a900460ff16836002015483838054600181600116156101000203166002900480601f0160208091040260200160405190810160405280929190818152602001828054600181600116156101000203166002900480156109e05780601f106109b5576101008083540402835291602001916109e0565b820191906000526020600020905b8154815290600101906020018083116109c357829003601f168201915b505050505093508260ff16925097509750975097505050610af7565b806000018160010160009054906101000a900460ff1682600201546000604051908082528060200260200182016040528015610a475781602001602082028038833980820191505090505b50838054600181600116156101000203166002900480601f016020809104026020016040519081016040528092919081815260200182805460018160011615610100020316600290048015610add5780601f10610ab257610100808354040283529160200191610add565b820191906000526020600020905b815481529060010190602001808311610ac057829003601f168201915b505050505093508260ff1692508090509650965096509650505b505090919293565b6000602052806000526040600020600091509050806000018054600181600116156101000203166002900480601f016020809104026020016040519081016040528092919081815260200182805460018160011615610100020316600290048015610bab5780601f10610b8057610100808354040283529160200191610bab565b820191906000526020600020905b815481529060010190602001808311610b8e57829003601f168201915b5050505050908060010160009054906101000a900460ff16908060010160019054906101000a900473ffffffffffffffffffffffffffffffffffffffff16908060020154905084565b60026020528060005260406000206000915090505481565b600460009054906101000a900463ffffffff1681565b60036020528160005260406000206020528060005260406000206000915091509054906101000a900473ffffffffffffffffffffffffffffffffffffffff1681565b6001602052816000526040600020602052806000526040600020600091509150505481565b6004809054906101000a900463ffffffff1681565b816040516020018082805190602001908083835b602083101515610cd75780518252602082019150602081019050602083039250610cb2565b6001836020036101000a038019825116818451168082178552505050505050905001915050604051602081830303815290604052805190602001206040516020018060000190506040516020818303038152906040528051906020012014151515610d4157600080fd5b610d49611071565b6000803373ffffffffffffffffffffffffffffffffffffffff1673ffffffffffffffffffffffffffffffffffffffff16815260200190815260200160002060806040519081016040529081600082018054600181600116156101000203166002900480601f016020809104026020016040519081016040528092919081815260200182805460018160011615610100020316600290048015610e2c5780601f10610e0157610100808354040283529160200191610e2c565b820191906000526020600020905b815481529060010190602001808311610e0f57829003601f168201915b505050505081526020016001820160009054906101000a900460ff1660ff1660ff1681526020016001820160019054906101000a900473ffffffffffffffffffffffffffffffffffffffff1673ffffffffffffffffffffffffffffffffffffffff1673ffffffffffffffffffffffffffffffffffffffff1681526020016002820154815250509050600073ffffffffffffffffffffffffffffffffffffffff16816040015173ffffffffffffffffffffffffffffffffffffffff1611151515610f5d576040517f08c379a00000000000000000000000000000000000000000000000000000000081526004018080602001828103825260108152602001807f494420414c52454144592045584953540000000000000000000000000000000081525060200191505060405180910390fd5b6080604051908101604052808481526020018360ff1681526020013373ffffffffffffffffffffffffffffffffffffffff16815260200160008019168152506000803373ffffffffffffffffffffffffffffffffffffffff1673ffffffffffffffffffffffffffffffffffffffff1681526020019081526020016000206000820151816000019080519060200190610ff69291906110b6565b5060208201518160010160006101000a81548160ff021916908360ff16021790555060408201518160010160016101000a81548173ffffffffffffffffffffffffffffffffffffffff021916908373ffffffffffffffffffffffffffffffffffffffff16021790555060608201518160020155905050505050565b60806040519081016040528060608152602001600060ff168152602001600073ffffffffffffffffffffffffffffffffffffffff168152602001600080191681525090565b828054600181600116156101000203166002900490600052602060002090601f016020900481019282601f106110f757805160ff1916838001178555611125565b82800160010185558215611125579182015b82811115611124578251825591602001919060010190611109565b5b5090506111329190611136565b5090565b61115891905b8082111561115457600081600090555060010161113c565b5090565b9056fea165627a7a72305820406d1ea7ffcce53aeec26012bbca5eaca068553465342ad44da4e48eea1857010029",
  "source": "pragma solidity >=0.4.21 <0.7.0;\n\ncontract Patient{\n    mapping(address => patient) public patients;\n    mapping(address=> mapping(address=>uint)) public patientToDoctor;\n     mapping(address=> bytes32) public patienToFile;\n      mapping(address => mapping(uint32 => address)) public doctorList;\n    uint32 public fileCount=1;\n     uint32 public patientCount=1;\n\n\n    struct patient{\n           string name;\n        uint8 age;\n        address id;\n        bytes32 files;\n        \n       \n    }\n    modifier patientExits(address  _id){\n         \n    patient memory d= patients[_id];\n    require(d.id > address(0),\"no id\");\n    _;\n    }\n\n    function patientSignUp(string memory _name,uint8  _age) public{\n        require(keccak256(abi.encodePacked(\"\"))!=keccak256(abi.encodePacked(_name)));\n        patient memory p= patients[msg.sender];\n            require(!(p.id > address(0)),\"ID ALREADY EXIST\");\n            patients[msg.sender]=patient({name:_name,age:_age,id:msg.sender,files:''});\n\n    }\n\n        \n    function patientInfo() public view patientExits(msg.sender) returns(string memory _name,uint  _age,bytes32  _files,address[] memory  _list){\n        patient storage d= patients[msg.sender];\n\n        if(patientCount>1){\n\n         address[] memory ret = new address[](patientCount);\n         for (uint32 i = 0; i <= patientCount; i++) {\n        ret[i] = doctorList[msg.sender][i];\n        }\n\n        return(d.name,d.age,d.files,ret);\n        }\n        else{\n            return(d.name,d.age,d.files,new address[](0));\n        }\n    }\n\n}",
  "sourcePath": "/home/vishnuskrishnan/hacktonMedica/src/contracts/patient.sol",
  "compiler": {
    "name": "solc",
    "version": "0.5.0+commit.1d4f565a.Emscripten.clang"
  },
  "schemaVersion": "3.0.2",
  "updatedAt": "2020-06-16T15:41:32.102Z",
  "devdoc": {
    "methods": {}
  },
  "userdoc": {
    "methods": {}
  }
}