{
  "contractName": "Patient",
  "abi": [
    {
      "constant": true,
      "inputs": [
        {
          "name": "",
          "type": "address"
        }
      ],
      "name": "patients",
      "outputs": [
        {
          "name": "name",
          "type": "string"
        },
        {
          "name": "age",
          "type": "uint8"
        },
        {
          "name": "id",
          "type": "address"
        }
      ],
      "payable": false,
      "stateMutability": "view",
      "type": "function"
    },
    {
      "constant": true,
      "inputs": [
        {
          "name": "",
          "type": "address"
        },
        {
          "name": "",
          "type": "uint256"
        }
      ],
      "name": "files",
      "outputs": [
        {
          "name": "",
          "type": "string"
        }
      ],
      "payable": false,
      "stateMutability": "view",
      "type": "function"
    },
    {
      "constant": true,
      "inputs": [],
      "name": "fileCount",
      "outputs": [
        {
          "name": "",
          "type": "uint32"
        }
      ],
      "payable": false,
      "stateMutability": "view",
      "type": "function"
    },
    {
      "constant": true,
      "inputs": [
        {
          "name": "",
          "type": "address"
        },
        {
          "name": "",
          "type": "uint256"
        }
      ],
      "name": "doctorList",
      "outputs": [
        {
          "name": "",
          "type": "address"
        }
      ],
      "payable": false,
      "stateMutability": "view",
      "type": "function"
    },
    {
      "constant": true,
      "inputs": [
        {
          "name": "",
          "type": "address"
        },
        {
          "name": "",
          "type": "address"
        }
      ],
      "name": "patientToDoctor",
      "outputs": [
        {
          "name": "",
          "type": "uint32"
        }
      ],
      "payable": false,
      "stateMutability": "view",
      "type": "function"
    },
    {
      "constant": true,
      "inputs": [],
      "name": "patientCount",
      "outputs": [
        {
          "name": "",
          "type": "uint32"
        }
      ],
      "payable": false,
      "stateMutability": "view",
      "type": "function"
    },
    {
      "constant": false,
      "inputs": [
        {
          "name": "_name",
          "type": "string"
        },
        {
          "name": "_age",
          "type": "uint8"
        }
      ],
      "name": "patientSignUp",
      "outputs": [],
      "payable": false,
      "stateMutability": "nonpayable",
      "type": "function"
    },
    {
      "constant": true,
      "inputs": [],
      "name": "patientInfo",
      "outputs": [
        {
          "name": "_name",
          "type": "string"
        },
        {
          "name": "_age",
          "type": "uint256"
        },
        {
          "name": "_files",
          "type": "string[]"
        },
        {
          "name": "_list",
          "type": "address[]"
        }
      ],
      "payable": false,
      "stateMutability": "view",
      "type": "function"
    }
  ],
  "bytecode": "0x60806040526001600560006101000a81548163ffffffff021916908363ffffffff1602179055506001600560046101000a81548163ffffffff021916908363ffffffff16021790555034801561005457600080fd5b50611432806100646000396000f3fe60806040526004361061008e576000357c0100000000000000000000000000000000000000000000000000000000900463ffffffff16806301fb529e146100935780630869cfbc146100c15780632ba6978e14610100578063439535191461013d57806384990be6146101685780639bdf364b146101a5578063a0303c41146101e2578063ab15ab451461020d575b600080fd5b34801561009f57600080fd5b506100a8610236565b6040516100b89493929190611177565b60405180910390f35b3480156100cd57600080fd5b506100e860048036036100e39190810190610e66565b610710565b6040516100f7939291906111d1565b60405180910390f35b34801561010c57600080fd5b5061012760048036036101229190810190610ecb565b6107ff565b6040516101349190611155565b60405180910390f35b34801561014957600080fd5b506101526108c7565b60405161015f919061124f565b60405180910390f35b34801561017457600080fd5b5061018f600480360361018a9190810190610ecb565b6108dd565b60405161019c919061113a565b60405180910390f35b3480156101b157600080fd5b506101cc60048036036101c79190810190610e8f565b61092a565b6040516101d9919061124f565b60405180910390f35b3480156101ee57600080fd5b506101f761095c565b604051610204919061124f565b60405180910390f35b34801561021957600080fd5b50610234600480360361022f9190810190610f07565b610972565b005b6060600060608033610246610cf4565b6000808373ffffffffffffffffffffffffffffffffffffffff1673ffffffffffffffffffffffffffffffffffffffff16815260200190815260200160002060606040519081016040529081600082018054600181600116156101000203166002900480601f0160208091040260200160405190810160405280929190818152602001828054600181600116156101000203166002900480156103295780601f106102fe57610100808354040283529160200191610329565b820191906000526020600020905b81548152906001019060200180831161030c57829003601f168201915b505050505081526020016001820160009054906101000a900460ff1660ff1660ff1681526020016001820160019054906101000a900473ffffffffffffffffffffffffffffffffffffffff1673ffffffffffffffffffffffffffffffffffffffff1673ffffffffffffffffffffffffffffffffffffffff16815250509050600073ffffffffffffffffffffffffffffffffffffffff16816040015173ffffffffffffffffffffffffffffffffffffffff1611151561041c576040517f08c379a00000000000000000000000000000000000000000000000000000000081526004016104139061122f565b60405180910390fd5b60008060003373ffffffffffffffffffffffffffffffffffffffff1673ffffffffffffffffffffffffffffffffffffffff1681526020019081526020016000209050806000018160010160009054906101000a900460ff16600460003373ffffffffffffffffffffffffffffffffffffffff1673ffffffffffffffffffffffffffffffffffffffff168152602001908152602001600020600360003373ffffffffffffffffffffffffffffffffffffffff1673ffffffffffffffffffffffffffffffffffffffff168152602001908152602001600020838054600181600116156101000203166002900480601f0160208091040260200160405190810160405280929190818152602001828054600181600116156101000203166002900480156105875780601f1061055c57610100808354040283529160200191610587565b820191906000526020600020905b81548152906001019060200180831161056a57829003601f168201915b505050505093508260ff16925081805480602002602001604051908101604052809291908181526020016000905b82821015610671578382906000526020600020018054600181600116156101000203166002900480601f01602080910402602001604051908101604052809291908181526020018280546001816001161561010002031660029004801561065d5780601f106106325761010080835404028352916020019161065d565b820191906000526020600020905b81548152906001019060200180831161064057829003601f168201915b5050505050815260200190600101906105b5565b505050509150808054806020026020016040519081016040528092919081815260200182805480156106f857602002820191906000526020600020905b8160009054906101000a900473ffffffffffffffffffffffffffffffffffffffff1673ffffffffffffffffffffffffffffffffffffffff16815260200190600101908083116106ae575b50505050509050965096509650965050505090919293565b6000602052806000526040600020600091509050806000018054600181600116156101000203166002900480601f0160208091040260200160405190810160405280929190818152602001828054600181600116156101000203166002900480156107bc5780601f10610791576101008083540402835291602001916107bc565b820191906000526020600020905b81548152906001019060200180831161079f57829003601f168201915b5050505050908060010160009054906101000a900460ff16908060010160019054906101000a900473ffffffffffffffffffffffffffffffffffffffff16905083565b60046020528160005260406000208181548110151561081a57fe5b90600052602060002001600091509150508054600181600116156101000203166002900480601f0160208091040260200160405190810160405280929190818152602001828054600181600116156101000203166002900480156108bf5780601f10610894576101008083540402835291602001916108bf565b820191906000526020600020905b8154815290600101906020018083116108a257829003601f168201915b505050505081565b600560009054906101000a900463ffffffff1681565b6003602052816000526040600020818154811015156108f857fe5b906000526020600020016000915091509054906101000a900473ffffffffffffffffffffffffffffffffffffffff1681565b60016020528160005260406000206020528060005260406000206000915091509054906101000a900463ffffffff1681565b600560049054906101000a900463ffffffff1681565b816040516020018082805190602001908083835b6020831015156109ab5780518252602082019150602081019050602083039250610986565b6001836020036101000a038019825116818451168082178552505050505050905001915050604051602081830303815290604052805190602001206040516020018060000190506040516020818303038152906040528051906020012014151515610a1557600080fd5b610a1d610cf4565b6000803373ffffffffffffffffffffffffffffffffffffffff1673ffffffffffffffffffffffffffffffffffffffff16815260200190815260200160002060606040519081016040529081600082018054600181600116156101000203166002900480601f016020809104026020016040519081016040528092919081815260200182805460018160011615610100020316600290048015610b005780601f10610ad557610100808354040283529160200191610b00565b820191906000526020600020905b815481529060010190602001808311610ae357829003601f168201915b505050505081526020016001820160009054906101000a900460ff1660ff1660ff1681526020016001820160019054906101000a900473ffffffffffffffffffffffffffffffffffffffff1673ffffffffffffffffffffffffffffffffffffffff1673ffffffffffffffffffffffffffffffffffffffff16815250509050600073ffffffffffffffffffffffffffffffffffffffff16816040015173ffffffffffffffffffffffffffffffffffffffff1611151515610bf4576040517f08c379a0000000000000000000000000000000000000000000000000000000008152600401610beb9061120f565b60405180910390fd5b6060604051908101604052808481526020018360ff1681526020013373ffffffffffffffffffffffffffffffffffffffff168152506000803373ffffffffffffffffffffffffffffffffffffffff1673ffffffffffffffffffffffffffffffffffffffff1681526020019081526020016000206000820151816000019080519060200190610c83929190610d2f565b5060208201518160010160006101000a81548160ff021916908360ff16021790555060408201518160010160016101000a81548173ffffffffffffffffffffffffffffffffffffffff021916908373ffffffffffffffffffffffffffffffffffffffff160217905550905050505050565b60606040519081016040528060608152602001600060ff168152602001600073ffffffffffffffffffffffffffffffffffffffff1681525090565b828054600181600116156101000203166002900490600052602060002090601f016020900481019282601f10610d7057805160ff1916838001178555610d9e565b82800160010185558215610d9e579182015b82811115610d9d578251825591602001919060010190610d82565b5b509050610dab9190610daf565b5090565b610dd191905b80821115610dcd576000816000905550600101610db5565b5090565b90565b6000610de0823561137c565b905092915050565b600082601f8301121515610dfb57600080fd5b8135610e0e610e0982611297565b61126a565b91508082526020830160208301858383011115610e2a57600080fd5b610e358382846113a5565b50505092915050565b6000610e4a823561138e565b905092915050565b6000610e5e8235611398565b905092915050565b600060208284031215610e7857600080fd5b6000610e8684828501610dd4565b91505092915050565b60008060408385031215610ea257600080fd5b6000610eb085828601610dd4565b9250506020610ec185828601610dd4565b9150509250929050565b60008060408385031215610ede57600080fd5b6000610eec85828601610dd4565b9250506020610efd85828601610e3e565b9150509250929050565b60008060408385031215610f1a57600080fd5b600083013567ffffffffffffffff811115610f3457600080fd5b610f4085828601610de8565b9250506020610f5185828601610e52565b9150509250929050565b610f6481611323565b82525050565b6000610f75826112dd565b808452602084019350610f87836112c3565b60005b82811015610fb957610f9d868351610f5b565b610fa682611309565b9150602086019550600181019050610f8a565b50849250505092915050565b6000610fd0826112e8565b80845260208401935083602082028501610fe9856112d0565b60005b84811015611022578383038852611004838351611069565b925061100f82611316565b9150602088019750600181019050610fec565b508196508694505050505092915050565b600061103e826112fe565b8084526110528160208601602086016113b4565b61105b816113e7565b602085010191505092915050565b6000611074826112f3565b8084526110888160208601602086016113b4565b611091816113e7565b602085010191505092915050565b6000601082527f494420414c5245414459204558495354000000000000000000000000000000006020830152604082019050919050565b6000600582527f6e6f2069640000000000000000000000000000000000000000000000000000006020830152604082019050919050565b61111681611355565b82525050565b6111258161135f565b82525050565b6111348161136f565b82525050565b600060208201905061114f6000830184610f5b565b92915050565b6000602082019050818103600083015261116f8184611069565b905092915050565b600060808201905081810360008301526111918187611033565b90506111a0602083018661110d565b81810360408301526111b28185610fc5565b905081810360608301526111c68184610f6a565b905095945050505050565b600060608201905081810360008301526111eb8186611069565b90506111fa602083018561112b565b6112076040830184610f5b565b949350505050565b600060208201905081810360008301526112288161109f565b9050919050565b60006020820190508181036000830152611248816110d6565b9050919050565b6000602082019050611264600083018461111c565b92915050565b6000604051905081810181811067ffffffffffffffff8211171561128d57600080fd5b8060405250919050565b600067ffffffffffffffff8211156112ae57600080fd5b601f19601f8301169050602081019050919050565b6000602082019050919050565b6000602082019050919050565b600081519050919050565b600081519050919050565b600081519050919050565b600081519050919050565b6000602082019050919050565b6000602082019050919050565b600061132e82611335565b9050919050565b600073ffffffffffffffffffffffffffffffffffffffff82169050919050565b6000819050919050565b600063ffffffff82169050919050565b600060ff82169050919050565b600061138782611335565b9050919050565b6000819050919050565b600060ff82169050919050565b82818337600083830152505050565b60005b838110156113d25780820151818401526020810190506113b7565b838111156113e1576000848401525b50505050565b6000601f19601f830116905091905056fea265627a7a7230582064501e3f2a18edcfa64dea45bc0573d28ac31dc1d68b127eb8997c35df057dec6c6578706572696d656e74616cf50037",
  "source": "pragma solidity >=0.4.21 <0.7.0;\npragma experimental ABIEncoderV2;\ncontract Patient{\n    mapping(address => patient) public patients;\n    mapping(address=> mapping(address=>uint32)) public patientToDoctor;\n     mapping(address=> mapping(string=> uint32)) patienToFile;\n      mapping(address =>  address[]) public doctorList;\n      mapping(address => string[]) public   files;\n\n    uint32 public fileCount=1;\n     uint32 public patientCount=1;\n\n\n    struct patient{\n           string name;\n        uint8 age;\n        address id;\n\n        \n       \n    }\n    modifier patientExits(address  _id){\n         \n    patient memory d= patients[_id];\n    require(d.id > address(0),\"no id\");\n    _;\n    }\n\n    function patientSignUp(string memory _name,uint8  _age) public{\n        require(keccak256(abi.encodePacked(\"\"))!=keccak256(abi.encodePacked(_name)));\n        patient memory p= patients[msg.sender];\n            require(!(p.id > address(0)),\"ID ALREADY EXIST\");\n            patients[msg.sender]=patient({name:_name,age:_age,id:msg.sender});\n\n    }\n\n        \n    function patientInfo() public view patientExits(msg.sender) returns(string memory _name,uint  _age,string[] memory  _files,address[] memory  _list){\n        patient storage d= patients[msg.sender];\n\n\n    \n        return(d.name,d.age,files[msg.sender],doctorList[msg.sender]);\n    }\n\n}",
  "sourcePath": "/home/vishnuskrishnan/hacktonMedica/src/contracts/patient.sol",
  "compiler": {
    "name": "solc",
    "version": "0.5.0+commit.1d4f565a.Emscripten.clang"
  },
  "schemaVersion": "3.0.2",
  "updatedAt": "2020-06-19T17:16:37.153Z",
  "devdoc": {
    "methods": {}
  },
  "userdoc": {
    "methods": {}
  }
}